:020000041000EA
:1000000000001020A9320210E5320210E73202107F
:10001000E9320210EB320210ED3202100000000053
:10002000000000000000000000000000EF3202109D
:10003000F132021000000000F3320210C926001055
:10004000F7320210F9320210FB3202108530001034
:10005000FF320210493000105D3000107130001086
:1000600007330210093302100B3302100D33021054
:100070000F330210252C00100D300010213000101D
:1000800017330210193302101B3302101D330210F4
:100090001F330210213302102333021025330210C4
:1000A000FB2B0010092C0010172C00102D33021010
:1000B0002F33021031330210333302103533021064
:1000C0003733021039330210353000103D3302103F
:1000D000392C001041330210433302104533021013
:1000E00047330210493302104B3302104D330210D4
:1000F0004F330210513302105333021055330210A4
:1001000057330210593302105B3302105D33021073
:100110005F33021061330210633302106533021043
:1001200067330210693302106B3302106D33021013
:100130006F330210713302107333021075330210E3
:1001400077330210793302107B3302107D330210B3
:100150007F33021081330210833302108533021083
:1001600087330210893302108B3302108D33021053
:100170008F33021091330210933302109533021023
:100180009733021010B5054C237833B9044B13B1E3
:100190000448AFF300800123237010BDB80A00208B
:1001A000000000009445031008B5034B1BB1034940
:1001B0000348AFF3008008BD00000000BC0A002027
:1001C0009445031090B583B000AF03463A60FB71CD
:1001D0000B46BB803B68FA791A703B685A1CBB8897
:1001E000114618461EF0A5F83B68DC1C00230322CC
:1001F000396804481DF05FFA0346237000BF0C37CE
:10020000BD4690BDD40A002080B586B000AFF8602E
:10021000B9607A60BB6899B2FB6808331A4641201E
:10022000FFF7D0FFFB685868FB68083304221946C3
:1002300001F034F978617B69002B01D07B690CE017
:100240007A6800210020FFF7BDFFFB685B6804228D
:100250007968184601F022F9034618461837BD465A
:1002600080BD80B584B000AFF860B9601346FB80F4
:10027000BB68D8B2FB6803F10802FB881946FFF798
:10028000A1FFFB685868FB6808330422194601F097
:1002900005F9034618461037BD4680BD80B586B0C7
:1002A00000AFF860B9607A60FB6808331A46B96835
:1002B000F868FFF7A9FF78617B69002B01D07B69A3
:1002C0001BE0FB6803F10801002303220D481DF029
:1002D000F2F90346FB74FB68DB7AFA7C9A4202D09F
:1002E0006FF0150309E0FB68093318461EF038F873
:1002F00003461A467B681A80002318461837BD4605
:1003000080BD00BFD40A002080B586B000AFF86081
:10031000B96011461A460B46FB801346BB8007F1B5
:1003200012031A46B968F868FFF7B8FF78617B696D
:10033000002B01D07B691CE0B7F90630DB431AB211
:100340007B8A1BB213401BB29BB27B82FB88BA88AC
:10035000114618461DF040FF03469AB27B8A1343AC
:100360009BB27B827B8A1A46B968F868FFF779FFEF
:10037000034618461837BD4680BD80B586B000AF2D
:100380007860396007F10E031A4623217868FFF779
:1003900085FF78617B69002B01D07B691BE04FF002
:1003A000FF333B613B691B063B613B691B0E3B61B5
:1003B0003B69FA89114618461DF020FF03469BB29F
:1003C000FB81FB89DBB218461DF02BFF0346DAB236
:1003D0003B681A70002318461837BD4680BD80B5AB
:1003E00084B000AF78604FF0FF33FB60FB681B0404
:1003F000FB60FB681B0CFB60FB689BB21A462E215E
:100400007868FFF72EFF034618461037BD4680BDBB
:1004100080B586B000AF786041F23423FB82FB8A5E
:100420001A4645217868FFF71CFF38613B69002BAD
:1004300001D03B6914E007F10E031A4645217868A4
:10044000FFF72CFF38613B69002B01D03B6907E0C7
:10045000FB89FA8A9A4202D06FF0150300E000236C
:1004600018461837BD4680BD80B584B000AF7860AF
:100470007B685B69002B1AD07B685B69002118469A
:1004800000F0FAFDF860FB68002B01D0FB682AE061
:10049000322002F02BF97B685B690121184600F0DD
:1004A00011FEF860FB68002B19D0FB681BE041F2DD
:1004B000FA5244217868FFF7D4FEF860FB68002BFD
:1004C00001D0FB680FE04AF6517244217868FFF7CB
:1004D000C8FEF860FB68002B01D0FB6803E0012038
:1004E00002F00FF9002318461037BD4680BD80B5D5
:1004F00088B000AFF860B9601346FB710022B9689C
:10050000F86800F057FCF861FB69002B01D0FB692B
:1005100049E0BB68591C4FF0FF33BB61BB691B0747
:10052000BB61BB691B0FBB61BB699AB20023F86852
:10053000FFF7EAFEF861FB69002B01D0FB6932E0AE
:10054000822002F0D3F8BB68591C4FF0FF337B6167
:100550007B691B077B617B691B0F7B617B699AB29F
:10056000FB799BB2F868FFF7CFFEF861FB69002BBF
:1005700001D0FB6917E0BB68591D01230422F8680C
:10058000FFF7C2FEF861FB69002B01D0FB690AE0AE
:10059000962002F0ABF8FA68BB6804335B001344A2
:1005A000FA795A71002318462037BD4680BD80B5C0
:1005B00084B000AFF860B9607A60BB6826337A68AF
:1005C0001946F868FFF76AFE034618461037BD461D
:1005D00080BD80B586B000AFF860B9601346FB718E
:1005E0000122BB6802FA03F39AB2FB799BB2232182
:1005F000F868FFF789FE78617B69002B01D07B6981
:1006000007E0FA68BB6804335B001344FA791A7197
:10061000002318461837BD4680BD80B584B000AFB2
:10062000F860B9601346FB710122BB6802FA03F35C
:100630009BB21B019AB2FB799BB22321F868FFF7AA
:1006400063FE034618461037BD4680BD80B588B0AE
:1006500000AFF860B9607A60BB68053307F1160235
:100660001946F868FFF71AFEF861FB69002B01D004
:10067000FB6913E04FF0FF33BB61BB699B07BB61B4
:10068000BB69DB0EBB61BB69FA8A114618461DF0D7
:10069000B5FD0346DAB27B681A700023184620378E
:1006A000BD4680BD80B584B000AF7860396007F189
:1006B0000A031A4623217868FFF7F0FDF860FB680B
:1006C000002B01D0FB6813E07B8919464FF4806052
:1006D0001DF094FD03469BB27B817B89002B03D0E8
:1006E0003B6800221A7002E03B6801221A70002366
:1006F00018461037BD4680BD80B586B000AFF860A3
:10070000B9601346FB71BB68591D4FF0FF337B6125
:100710007B699B077B617B69DB0E7B617B699AB29E
:10072000FB799BB2F868FFF7EFFD034618461837D0
:10073000BD4680BD80B584B000AF78600B46FB70CD
:100740004FF0FF33FB60FB689B07FB60FB689B0D72
:10075000FB60FB689AB2FB789BB223217868FFF7B5
:10076000D3FDB860BB68002B01D0BB6803E06420F8
:1007700001F0BCFF002318461037BD4680BD0000C5
:1007800080B588B000AFF860B9607A60FB70FB7824
:10079000002B06D00122B968F868FFF73EFFF86128
:1007A00005E00122B968F868FFF713FFF861FB69FB
:1007B000002B01D0FB6986E007F117031946F868A2
:1007C000FFF7DBFDF861FB69002B01D0FB697AE0E4
:1007D0000121F868FFF7AEFFF861FB69002B01D03B
:1007E000FB6970E0FB78002B07D007F11603194670
:1007F000F868FFF757FFF86107E007F116031A469C
:10080000B968F868FFF722FFF861FB69002B01D097
:10081000FB6958E0FB681B78002B06D1BB7D1A46AC
:100820002B4B53F82230BB6105E0BB7D1A46294BA8
:1008300053F82230BB61BB69B3F57A7F08D2FB7DE8
:100840001A46BB6902FB03F3184601F04FFF0BE0A9
:10085000FB7D1A46BB6902FB03F31F4AA2FB03237D
:100860009B09184601F04DFFFB78002B06D07A68F3
:10087000B968F86800F0BDFAF86105E07A68B9680F
:10088000F868FFF794FEF861FB69002B01D0FB6963
:1008900019E00321F868FFF74DFFF861FB69002BB1
:1008A00001D0FB690FE0FB78002B06D00022B9686D
:1008B000F868FFF7B2FE034605E00022B968F86861
:1008C000FFF787FE034618462037BD4680BD00BFB0
:1008D0000801031018010310D34D62102DE9B04F29
:1008E000B0B000AFC7F8B400C7F8B010C7F8AC207C
:1008F00007F1BA020023D7F8B010D7F8B400FFF719
:100900003FFFC7F8BC00D7F8BC30002B02D0D7F8A7
:10091000BC3042E2D7F8B420D7F8B03004335B00E3
:1009200013445B790A2B00F2348201A252F823F0BF
:100930005D0900103F0A0010A30A0010A30A00106E
:100940009D0B00109D0B00106D0C0010D30C0010BF
:10095000D30C00107D0B00108D0B0010B7F8BA30CF
:100960009BB20022C7F89030C7F89420D7E92445FD
:1009700022462B464FF000004FF00001190141EADA
:100980001271100102460B4621465118396429465E
:100990004B417B644FF000024FF00003D7E9108910
:1009A00049464B01414643EAD16341464A0110465C
:1009B0001946034622469B18BB630B462A4642EB68
:1009C0000303FB634FF000024FF00003D7E90E89E9
:1009D0004946CB00414643EA51734146CA0041466D
:1009E000511A3963494663EB01037B634FF0000200
:1009F0004FF00003D7E90C8949468B00414643EA92
:100A0000917341468A0010461946034622469B1AB6
:100A1000C7F888300B462A4663EB0203C7F88C30D0
:100A2000D7F8AC300833DF4AD7E922011DF03EFC8D
:100A300002460B46D7F8AC10C1E90023ACE1B7F889
:100A4000BA30A3F5FF437F3BDA17C7F88030C7F809
:100A50008420D54BD7E920452A4603FB02F2002328
:100A6000214601FB03F31344CF4A2146A1FB0212A6
:100A7000C7F8A4200A46C7F8A020D7F8A42013443A
:100A8000C7F8A430D7E92801D7F8AC300833C74AF3
:100A90001DF029FC02460B46D7F8AC10C1E9002333
:100AA0007AE1B7F8BA309BB20022BB67FA67D7E9A0
:100AB0001E4522462B464FF000004FF00001190161
:100AC00041EA1271100102460B4621465118B962E3
:100AD00029464B41FB624FF000024FF00003D7E97B
:100AE0000A8949464B01414643EAD16341464A01DE
:100AF00010461946034622469B183B620B462A467F
:100B000042EB03037B624FF000024FF00003D7E992
:100B100008894946CB00414643EA51734146CA0021
:100B20004146511AB961494663EB0103FB614FF03D
:100B300000024FF00003D7E9068949468B00414681
:100B400043EA917341468A001046194603462246FD
:100B50009B1A3B670B462A4663EB02037B67D7F879
:100B6000AC3008338F4AD7E91C011DF09FFB0246C9
:100B70000B46D7F8AC10C1E900230DE1D7F8B4302B
:100B80001B78012B02D16FF0850306E1D7F8B43052
:100B90001B78012B02D16FF08503FEE0B7F8BA3065
:100BA0009BB20022BB66FA66D7E91A4522462B465D
:100BB0004FF000004FF00001D90041EA5271D0001F
:100BC00002460B4621465118396129464B417B614B
:100BD0004FF000024FF00003D7E9048949464B016A
:100BE000414643EAD16341464A011046194603464D
:100BF00022469B18BB600B462A4642EB0303FB6070
:100C00004FF000024FF00003D7E9028949464B013B
:100C1000414643EAD16341464A01414611EB020A8B
:100C2000494641EB030B4FF000024FF000034FEA3F
:100C30008B0343EA9A734FEA8A0292469B46234605
:100C4000BAEB03033B662B466BEB03037B66D7F8DB
:100C5000AC300833554AD7E918011DF027FB02468E
:100C60000B46D7F8AC10C1E9002395E0B7F8BA30CD
:100C70009BB20022BB65FA654D4BD7E916452A4663
:100C800003FB02F20023214601FB03F31344484A0D
:100C90002146A1FB0212C7F89C200A46C7F89820FB
:100CA000D7F89C201344C7F89C30B7F8BA30C3F586
:100CB0007F43FF331A46D7F8AC300833D7E9260113
:100CC0001DF0F4FA02460B46D7F8AC10C1E9002338
:100CD00062E0B7F8BA309BB200223B657A65D7E98B
:100CE00014AB52465B464FF000004FF00001190173
:100CF00041EA1271100102460B46514612EB0108FF
:100D0000594643EB01094FF000024FF000034FEA50
:100D1000491343EAD8634FEA48129046994653462E
:100D200018EB03033B605B4649EB03037B604FF02A
:100D300000024FF00003D7E900894946CB00414645
:100D400043EA51734146CA004146541A494663EB8F
:100D500001054FF000024FF00003AB0043EA94732B
:100D6000A20014461D465346E31ABB645B4665EB7E
:100D70000303FB64D7F8AC3008330A4AD7E9120101
:100D80001DF094FA02460B46D7F8AC10C1E90023D7
:100D900002E06FF0150300E000231846C037BD469F
:100DA000BDE8B08FA0860100062A010000E1F5052C
:100DB000200B200080B586B000AFF860B960134604
:100DC000FB80BB681633FA881946F868FFF749FAC2
:100DD00078617B69002B01D07B6906E049F23A52C9
:100DE0004421F868FFF73DFA034618461837BD4618
:100DF00080BD80B586B000AFF860B9607A60BB682E
:100E00002A337A681946F868FFF748FA78617B69EF
:100E1000002B01D07B6914E04FF0FF333B613B694D
:100E20001B043B613B691B0C3B613A697B681B8877
:100E3000194610461DF0E2F903469AB27B681A8003
:100E40007B6918461837BD4680BD000080B584B068
:100E500000AF786039603B68002B02D16FF015035A
:100E60005CE0182101201CF0D0FBB860BB68002BAF
:100E700002D16FF00B0351E0BB681A1D3B680433CD
:100E80001946104600F01EFAF860FB68002B40D1AE
:100E9000072124481CF0D2FBBB6803F114023B6815
:100EA000DB691946104600F06CF8F860FB68002B0F
:100EB00028D1B868FFF7D8FAF860FB68002B16D184
:100EC000B868FFF78CFAF860FB68002B11D1B8689E
:100ED000FFF79EFAF860FB68002B0CD13B681A788C
:100EE000BB681A707B68BA681A60002316E000BFFE
:100EF00002E000BF00E000BFBB685B69184600F07D
:100F000077F800E000BFBB685B68184600F070FA35
:100F100000E000BFB8681CF086FBFB68184610377D
:100F2000BD4680BDD40A002080B584B000AF786093
:100F300039603B68002B03D03B68DB68002B02D193
:100F40006FF0150319E03B68DB681B68002B02D1CA
:100F50006FF0570311E03B68DB681B6839687868FD
:100F60009847F860FB68002B01D0FB6805E07B68C0
:100F70001B683A68D268DA60002318461037BD460D
:100F800080BD80B584B000AF786039603B68002BCD
:100F900004D03B685B68B3F1FF3F04D17B6800225B
:100FA0001A60002320E03B68DB68002B02D16FF061
:100FB000150319E03B68DB685B68002B02D16FF01A
:100FC000570311E03B68DB685B68396878689847CD
:100FD000F860FB68002B01D0FB6805E07B681B68AC
:100FE0003A68D268DA60002318461037BD4680BDE3
:100FF00080B582B000AF78607B68002B15D07B682D
:10100000DB68002B02D16FF015030FE07B68DB6813
:101010009B68002B02D16FF0570307E07B68DB6809
:101020009B6878689847034600E000231846083715
:10103000BD4680BD80B582B000AF78607B68002B74
:1010400015D07B68DB68002B02D16FF015030FE031
:101050007B68DB68DB68002B02D16FF0570307E089
:101060007B68DB68DB6878689847034600E000230C
:1010700018460837BD4680BD80B582B000AF7860A5
:101080000B46FB707B68002B17D07B68DB68002B5E
:1010900002D16FF0150311E07B68DB681B69002B40
:1010A00002D16FF0570309E07B68DB681B69FA78AF
:1010B000114678689847034600E000231846083731
:1010C000BD4680BD80B582B000AF78600B46FB7036
:1010D0007B68002B17D07B68DB68002B02D16FF098
:1010E000150311E07B68DB689B69002B02D16FF070
:1010F000570309E07B68DB689B69FA7811467868DA
:101100009847034600E0002318460837BD4680BDD7
:1011100080B584B000AF786039603B68002B03D0A5
:101120003B685B68002B02D16FF0150319E03B6848
:101130005B681B68002B02D16FF0570311E03B681E
:101140005B681B68396878689847F860FB68002B13
:1011500001D0FB6805E07B681B683A6852685A60FA
:10116000002318461037BD4680BD80B582B000AF61
:1011700078607B68002B03D07B685B68002B02D112
:101180006FF015030DE07B685B685B6A002B02D192
:101190006FF0570305E07B685B685B6A7868984787
:1011A000034618460837BD4680BD80B584B000AF01
:1011B000F860B9607A60FB68002B03D0FB685B685D
:1011C000002B02D16FF015030FE0FB685B685B68D2
:1011D000002B02D16FF0570307E0FB685B685B6888
:1011E0007A68B968F8689847034618461037BD46CC
:1011F00080BD80B584B000AFF860B9607A60FB68EC
:10120000002B03D0FB685B68002B02D16FF0150345
:101210000FE0FB685B689B68002B02D16FF05703FF
:1012200007E0FB685B689B687A68B968F86898476C
:10123000034618461037BD4680BD80B582B000AF6A
:10124000786039607B68002B03D07B685B68002B7B
:1012500002D16FF015030EE07B685B689B69002B81
:1012600002D16FF0570306E07B685B689B693968C1
:1012700078689847034618460837BD4680BD80B554
:1012800082B000AF786039607B68002B03D07B6848
:101290005B68002B02D16FF015030EE07B685B6882
:1012A000DB69002B02D16FF0570306E07B685B68B7
:1012B000DB69396878689847034618460837BD46A1
:1012C00080BD000080B584B000AF786039603B68B5
:1012D000002B03D03B68DB68002B02D16FF01503B5
:1012E00044E03B68DB681B68002B02D16FF05703BA
:1012F0003CE03B681B68082B02D96FF0150335E012
:101300003B681B681B4A52F82330002B08D1386811
:1013100000F032F8F860FB68002B01D0FB6825E094
:101320003B68DB681B68396878689847F860FB6839
:10133000002B01D0FB6819E03B681A687B681B68CA
:101340000C4951F822201A607B681B681B681A79C7
:101350000132D2B21A717B681B683A68D2681A618E
:101360007B681B683A6852699A61002318461037F7
:10137000BD4680BDD40B002080B584B000AF78603E
:101380001C2101201CF041F9F860FB68002B02D100
:101390006FF00B0325E0FB6818461CF0D7FEFB68D6
:1013A00000221A717B681A68FB689A607B685A6829
:1013B000FB68DA607B685A7AFB681A747B689A7AF1
:1013C000FB685A747B68DA68FB685A617B681A6943
:1013D000FB689A617B681B680449FA6841F823201E
:1013E000002318461037BD4680BD00BFD40B002037
:1013F00080B582B000AF78607B681B689B68184638
:1014000000F01CF87B68002B03D07B681B69002B65
:1014100002D16FF015030DE07B681B69DB68002BC0
:1014200002D16FF0570305E07B681B69DB687868C1
:101430009847034618460837BD4680BD80B584B03E
:1014400000AF7860144A7B6852F82330FB60FB6879
:101450001B79002B05D0FB681B79013BDAB2FB68D6
:101460001A71FB681B79002B11D1FB681B681846A9
:101470001CF08AFEFB68002B09D0F8681CF0D3F83A
:101480000023FB60044A7B68002142F8231000BF60
:101490001037BD4680BD00BFD40B002080B586B09C
:1014A00000AFF860B9601346FB80FB68002B03D0E7
:1014B000FB681B69002B02D16FF015031CE0FB6871
:1014C0001B695B68002B02D16FF0570314E0FB68C7
:1014D0001B681B6818461CF043FEFB681B695B68B1
:1014E000FA88B968F86898477861FB681B681B68D8
:1014F00018461CF03FFE7B6918461837BD4680BD74
:1015000080B586B000AFF860B9607A6000237B6177
:10151000FB68002B03D0FB681B69002B02D16FF026
:10152000150364E0FB681B699B68002B08D0FB680F
:101530001B699B687A68B968F8689847034656E063
:10154000FB681B681B6818461CF00AFE00233B6101
:1015500040E03A691346DB009B1A9B001A46BB68C1
:10156000134459683A691346DB009B1A9B001A46DC
:10157000BB6813441B6899420AD13A691346DB00E1
:101580009B1A9B001A46BB6813441B68002B03D1AF
:101590006FF015037B6123E03A691346DB009B1A69
:1015A0009B001A46BB68134459683A691346DB002E
:1015B0009B1A9B001A46BB6813449B689BB21A4651
:1015C000F868FFF76BFF78617B69002B07DB3B69ED
:1015D00001333B613A697B689A42BAD300E000BFAD
:1015E000FB681B681B6818461CF0C4FD7B69184625
:1015F0001837BD4680BD000080B584B000AF78606C
:1016000039603B68002B03D03B68DB68002B02D1BC
:101610006FF015032AE03B68DB681B68002B02D1E2
:101620006FF0570322E03B68DB681B683968786815
:101630009847F860FB68002B01D0FB6816E07B68D8
:101640001B683A68D2681A613B681B889B00094A8C
:10165000134418461CF07AFD3B681B8819467B68CA
:101660001B68044A52F821201A60002318461037DC
:10167000BD4680BDF80B002080B582B000AF786019
:101680007B68002B03D07B681B69002B02D16FF0B5
:10169000150319E07B681B691B6A002B02D16FF0F0
:1016A000570311E07B681B6818461CF06DFD7B68D2
:1016B0009B881946064B002243F821207B681B6952
:1016C0001B6A78689847034618460837BD4680BDB0
:1016D000F80B002080B582B000AF78607B68002BEB
:1016E00003D07B681B69002B02D16FF015030DE05E
:1016F0007B681B695B68002B02D16FF0570305E024
:101700007B681B695B68786898470346184608370A
:10171000BD4680BD80B582B000AF786039607B681F
:10172000002B06D07B681B69002B02D03B68002B86
:1017300002D16FF015030EE07B681B69DB68002B9C
:1017400002D16FF0570306E07B681B69DB683968DC
:1017500078689847034618460837BD4680BD0000A4
:1017600080B584B000AF786039603B68002B07D04B
:101770003B685B69002B03D03B681B780A2B02D9BE
:101780006FF015032AE03B685B691B68002B02D1F0
:101790006FF0570322E03B685B691B683968786823
:1017A0009847F860FB68002B01D0FB6816E07B6867
:1017B0001B683A6852695A613B681B789B00094A6A
:1017C000134418461CF0C2FC3B681B7819467B6822
:1017D0001B68044A52F821201A600023184610376B
:1017E000BD4680BD0C0C002080B586B000AFF8600F
:1017F000B9607A60FB68002B06D0FB685B69002B40
:1018000002D0BB68002B02D16FF015031AE0FB6811
:101810005B695B68002B02D16FF0570312E0FB6835
:101820001B6818461CF09CFCFB685B695B687A6867
:10183000B968F86898477861FB681B6818461CF01F
:1018400099FC7B6918461837BD4680BD80B586B0C7
:1018500000AFF860B9607A60FB68002B06D0FB68C7
:101860005B69002B02D0BB68002B02D16FF015031F
:101870001AE0FB685B699B68002B02D16FF057038D
:1018800012E0FB681B6818461CF06AFCFB685B6989
:101890009B687A68B968F86898477861FB681B6844
:1018A00018461CF067FC7B6918461837BD4680BD9A
:1018B00090B58FB000AFF8600B467A607B81022351
:1018C0007B6307F1140300221A605A609A60DA60A1
:1018D0001A615A619A61FB680E337B610623FB61D2
:1018E000012387F820304FF0FF333B633B6BDB0471
:1018F0003B633B6BDB0C3B633B6B9AB27B891340D6
:101900007B817B8943F07F4343F47F0343F420438F
:101910007B81FB6803F10E027B89114618461CF09F
:1019200008FDFB6893F80C36002B11D0FB6803F11F
:101930000E01002302221E481BF0BDFE03461A467C
:10194000FB681A747B6B01337B63FB690133FB61BA
:101950007B6B0833FA6813440633194678681CF029
:1019600014FDFB6893F80C36002B13D07B6B083307
:10197000FA681344991D7B6B1C1D002304220C483C
:101980001BF099FE03461A46FB6823449A73FB69D1
:101990000133FB61FB685B6807F114010122184603
:1019A000FFF7AEFD034618463C37BD4690BD00BF6D
:1019B000380C002080B58EB000AFF8600B467A601E
:1019C0007B8103237B6307F1100300221A605A60B6
:1019D0009A60DA601A615A619A61FB680E333B6162
:1019E000FB680E337B610423BB6101233B77FB68FB
:1019F00003F10E027B89114618461CF09AFCFB6825
:101A00009B7B63F07F03DAB2FB689A73FB6800226A
:101A10001A74FB6893F80C36002B14D0BB690133A1
:101A2000BB61FB6803F10E010023022228481BF072
:101A300042FE03461A46FB681A74FB6800225A7479
:101A40007B6B01337B63BA697B6B1344BB61FB68BF
:101A50005B6807F1100101221846FFF751FD38635A
:101A60003B6B002B01D03B6B2DE0FB6893F80C36F1
:101A7000002B1CD07B6B0833FA681344991D00239C
:101A8000042213481BF017FE034687F82F307B6BA8
:101A90000433FA6813449B7B87F82E3097F82F2085
:101AA00097F82E309A4202D06FF015030BE07B6B53
:101AB0000833FA681344063318461CF087FC0246C4
:101AC0007B681A60002318463837BD4680BD00BFCA
:101AD000380C002080B586B000AFF8607A603B60BB
:101AE0000B467B8107F110027B891946F868FFF7E6
:101AF00061FF78617B69002B01D07B6911E07B6815
:101B0000DA433B6913403B617A683B681A403B69A2
:101B100013433B613A697B891946F868FFF7C8FEB1
:101B2000034618461837BD4680BD90B593B000AF48
:101B3000F860B9607A603B6000237B644FF0FF334C
:101B40003B643B6C9B073B643B6C9B083B643B6C7E
:101B5000002118461CF040FB04464FF0FF33FB63A6
:101B6000FB6B9B07FB63FB6B1B09FB63FB6B0021A0
:101B700018461CF031FB03461C434FF0FF33BB6398
:101B8000BB6BDB06BB63BB6B9B09BB63BB6BB96801
:101B900018461CF021FB03461C434FF0FF337B63C8
:101BA0007B6BDB067B637B6BDB0A7B637B6B796820
:101BB00018461CF011FB03461C434FF0FF333B63F8
:101BC0003B6B1B043B633B6B1B0C3B633B6B396800
:101BD00018461CF001FB03462343FB62FA6A2021EE
:101BE000F868FFF765FEB862BB6A002B01D0BB6ADC
:101BF0008EE04FF0FF337B627B6A9B077B627B6AE0
:101C00009B087B627B6A002118461CF0E5FA0446BB
:101C10004FF0FF333B623B6A9B073B623B6A1B0909
:101C20003B623B6A012118461CF0D6FA03461C436E
:101C30004FF0FF33FB61FB69DB06FB61FB699B092E
:101C4000FB61FB69B96818461CF0C6FA03461C43E1
:101C50004FF0FF33BB61BB69DB06BB61BB69DB0ACD
:101C6000BB61BB69796818461CF0B6FA03461C4391
:101C70004FF0FF337B617B691B047B617B691B0C2D
:101C80007B617B69B7F85820114618461CF0A4FA0E
:101C900003462343FB62FA6A2121F868FFF708FE36
:101CA000B862BB6A002B15D0BB6A31E007F11003A4
:101CB0001A462021F868FFF77DFEB862BB6A002B48
:101CC00001D0BB6A24E03B6919464FF000401CF08C
:101CD00095FA78647B6C002BE8D000237B6413E0DA
:101CE00007F110031A462121F868FFF763FEB86276
:101CF000BB6A002B01D0BB6A0AE03B6919464FF072
:101D000000401CF07BFA78647B6C002BE8D0002349
:101D100018464C37BD4690BD90B593B000AFF86003
:101D2000B9607A607B8000237B644FF0FF333B64B3
:101D30003B6C9B073B643B6C9B083B643B6C00210A
:101D400018461CF049FA04464FF0FF33FB63FB6B67
:101D50009B07FB63FB6B1B09FB63FB6B00211846B6
:101D60001CF03AFA03461C434FF0FF33BB63BB6BD6
:101D7000DB06BB63BB6B9B09BB63BB6BB9681846D7
:101D80001CF02AFA03461C434FF0FF337B637B6B46
:101D9000DB067B637B6BDB0A7B637B6B79681846B6
:101DA0001CF01AFA03461C434FF0FF333B633B6BB6
:101DB0001B043B633B6B1B0C3B633B6B7A881146FC
:101DC00018461CF009FA03462343FB62FA6A2021F5
:101DD000F868FFF76DFDB862BB6A002B15D0BB6ACF
:101DE0008FE007F110031A462021F868FFF7E2FDA3
:101DF000B862BB6A002B01D0BB6A82E03B6919461E
:101E00004FF000401CF0FAF978647B6C002BE8D0AE
:101E10004FF0FF337B627B6A9B077B627B6A9B0888
:101E20007B627B6A002118461CF0D6F904464FF00D
:101E3000FF333B623B6A9B073B623B6A1B093B6289
:101E40003B6A032118461CF0C7F903461C434FF0B8
:101E5000FF33FB61FB69DB06FB61FB69DB0AFB61AE
:101E6000FB69796818461CF0B7F903461C434FF02C
:101E7000FF33BB61BB69DB06BB61BB699B09BB610F
:101E8000BB69B96818461CF0A7F903462343FB62F7
:101E9000FA6A2121F868FFF70BFDB862BB6A002BD4
:101EA00001D0BB6A2DE000237B6413E007F110032F
:101EB0001A462121F868FFF77DFDB862BB6A002B46
:101EC00001D0BB6A1DE03B6919464FF000401CF091
:101ED00095F978647B6C002BE8D04FF0FF337B6181
:101EE0007B691B047B617B691B0C7B617B693A69A5
:101EF000114618461CF082F903469AB2BB6D1A804F
:101F0000002318464C37BD4690BD80B588B000AF61
:101F10007860396038681CF023FA0346FB61FB697E
:101F200043F0804343F48033FB617B681B78012BD3
:101F300003D1FB6943F00043FB610023BB612DE04B
:101F4000BB6928339BB25B009BB207F10C021946B8
:101F50007868FFF72FFD78617B69002B01D07B69E2
:101F600043E0FB68002B15D1BB699BB25B009BB2C1
:101F700051339BB207F10C0219467868FFF71AFD3E
:101F800078617B69002B01D07B692EE0FB68002B18
:101F900008D000E000BFBB690133BB61BB690F2BF8
:101FA000CEDD00E000BFBB6928339BB25B009BB273
:101FB000FA6919467868FFF77BFC78617B69002B2A
:101FC00001D07B6911E03B68023318461CF0FEF932
:101FD0003861BB699BB25B009BB251339BB23A69DB
:101FE00019467868FFF764FC034618462037BD465B
:101FF00080BD000080B592B000AFF860B9607A6033
:1020000002237B6400233B6407F1100300221A6063
:102010005A609A60DA601A615A619A61FB680E33FD
:102020003B6101233B77FB681B784D4ADB0013447F
:102030005B68BA689A4202D36FF015038BE07B6845
:102040001B6804333F2B04D87B681B68C3F13C0337
:102050003B647B681A683B6C13440233FB63FB6B85
:10206000033323F00303BB6307F12C031A46322129
:10207000F868FFF79FFC78637B6B002B01D07B6BCC
:1020800069E0FB6A023B5B00FA6B9A4202D96FF08F
:102090000A0360E0FA6B3021F868FFF709FC786307
:1020A0007B6B002B01D07B6B55E0FB680E33194630
:1020B00031201CF03EF9FB689B7B63F05F03DAB2D2
:1020C000FB689A73FB6893F80C36002B0ED0FB6804
:1020D00003F10E010023022222481BF0ECFA034612
:1020E0001A46FB681A747B6C01337B64BB6898B238
:1020F0007B6C0833FA681344063319461CF019F94F
:10210000BA6B7B6C1344BB617B6C02333B633B6BF0
:102110000833FA681344981D7B6804330E2219466D
:1021200021F084FE3B6B0E333B633B6B0833FA6854
:102130001344981D7B6859697B681B680E3B1A46DF
:1021400021F074FEFB685B6807F11001012218465C
:10215000FFF7D6F9034618464837BD4680BD00BF95
:1021600000000020380C002080B592B000AFF8606D
:10217000B9607A6003237B6407F1100300221A60C0
:102180005A609A60DA601A615A619A61FB680E338C
:102190003B61FB680E337B6101233B77FB681B7857
:1021A000514ADB0013445B68BA689A4202D36FF06D
:1021B000150394E0BB68002B04D19123FB639023AB
:1021C0003B6403E0C123FB63C0233B643B6C9BB2D5
:1021D00007F12C021946F868FFF7ECFBB863BB6BFC
:1021E000002B01D0BB6B7AE0FB6A052B01D80023E2
:1021F00075E0FB680E3340F2FA520021184621F0D8
:102200002BFFFB6B9AB2FB680E33194610461CF08D
:1022100090F8FB689B7B63F07F03DAB2FB689A73EC
:10222000FB6800221A74FB6893F80C36002B11D05F
:10223000FB6803F10E01002302222C481BF03BFA3D
:1022400003461A46FB681A74FB6800225A747B6CBA
:1022500001337B64BB6898B27B6C0833FA68134423
:10226000063319461CF065F8FB6A033323F00303B9
:102270007B637A6B7B6C1344BB617B6C02337B6446
:10228000FB685B6807F1100101221846FFF738F977
:10229000B863BB6B002B01D0BB6B20E0FB6A103B2B
:1022A0003B637B68181D7B6C0833FA681344063364
:1022B0000E22194621F0BAFD7B6C0E337B647B68DD
:1022C00058697B6C0833FA68134406333A6B194635
:1022D00021F0ACFDFB6A9A1E7B681A600023184649
:1022E0004837BD4680BD00BF00000020380C0020EC
:1022F00080B584B000AF786007F108031A46082162
:102300007868FFF757FBF860FB68002B01D0FB688B
:1023100015E0BB68194640201BF070FF0346BB6008
:10232000BB68002B02D16FF00F0308E04FF40043AD
:102330004FF4004204217868FFF7CCFB03461846AF
:102340001037BD4680BD80B582B000AF78600122F5
:1023500003217868FFF7ACFA034618460837BD46F4
:1023600080BD000080B586B000AFF860B96013464C
:10237000FB71FB681B78114ADB0013445B68BA6889
:102380009A4202D36FF0150314E0BB68002B02D110
:1023900004237B6102E04FF480537B61FB79002BC7
:1023A00001D07B6900E000237A690621F868FFF715
:1023B00091FB034618461837BD4680BD000000203B
:1023C00080B58AB002AF78607B681B782B4ADB004F
:1023D00013445B68BB610023FB6146E0FB69591C49
:1023E00007F10E030093002300227868FFF794FCA6
:1023F00078617B69002B01D07B693BE0FB89194642
:102400004FF400601BF0FAFE38613B69002B29D0C5
:1024100023E0FB8923F400639BB2FB81FB69591C19
:10242000FB890093002300227868FFF77EFB786128
:102430007B69002B01D07B691CE0FB69591C07F10B
:102440000E030093002300227868FFF765FC786193
:102450007B69002B01D07B690CE0FB8903F40063EE
:10246000002BD6D1FB690133FB61FA69BB699A4243
:10247000B4D3002318462037BD4680BD000000209D
:1024800080B584B000AF78602023202206217868D0
:10249000FFF720FBB860BB68002B01D0BB681EE0D3
:1024A0004FF48363FB607B681B78012B03D1FB68CF
:1024B00043F40033FB60FB68DB431A460D21786868
:1024C000FFF7F6F9B860BB68002B01D0BB6806E0E7
:1024D0007B68083319467868FFF717FD03461846EE
:1024E0001037BD4680BD000080B584B000AF786075
:1024F00039603B683033002B02D16FF01503AEE03A
:102500004FF4C261012021F02DF90346BB60BB6886
:10251000002B02D16FF00B03A1E0BB6803F5C16291
:102520003B681C3319461046FEF72BFDF860FB682C
:10253000002B40F08F80BB68D3F80836002B1BD0EF
:10254000BB68D3F8083600211846FEF795FDF86001
:10255000FB68002B72D10A2000F0D3F8BB68D3F8D7
:10256000083601211846FEF7ADFDF860FB68002B28
:1025700066D15A2000F0C5F8BB681A1D3B680433C9
:1025800019461046FEF79EFEF860FB68002B59D1F5
:10259000072135481BF052F8BB6803F108003B687F
:1025A00030330622194622F0B9FABB6803F108005D
:1025B0003B6830330622194621F038FC3B681A7814
:1025C000BB681A703B6893F83620BB6883F80C260A
:1025D000BB68D3F80836002B09D1B868FFF7B3FE03
:1025E000F860FB68002B1CD15A2000F08AF8B8680C
:1025F000FFF746FFF860FB68002B14D1B868FFF7BF
:10260000DFFEF860FB68002B0FD1B868FFF770FEA3
:10261000F860FB68002B0AD17B68BA681A60002357
:102620001DE000BF04E000BF02E000BF00E000BF0B
:10263000BB685B681846FEF7DBFE04E000BF02E003
:1026400000BF00E000BFBB68D3F808361846FEF7AD
:10265000CFFC00E000BFB86821F0FEF8FB68184628
:102660001037BD4680BD00BF380C002080B584B057
:1026700000AF78607B68002B02D16FF015031FE07C
:102680007B685B681846FEF7B3FEF860FB68002BBA
:1026900001D0FB6814E07B68D3F80836002B0BD020
:1026A0007B68D3F808361846FEF7A2FCF860FB6892
:1026B000002B01D0FB6803E0786821F0CDF80023FF
:1026C00018461037BD4680BDB0B500AF1DF0BEFE48
:1026D000054BD3E90023541C43F10005024BC3E929
:1026E000004500BFB0BD00BF380D002080B582B0EE
:1026F00000AF786078681DF0D3FF00BF0837BD4693
:1027000080BD80B582B000AF78607B684FF47A728C
:1027100002FB03F318461DF0C3FF00BF0837BD4698
:1027200080BD00002DE9B04384B000AF78601D4B40
:10273000D3E900014FF47A724FF0000320F090FECD
:1027400002460B461346BB60164BD3E90023B9681B
:102750004FF47A7000FB01F100200C460546B2EB05
:10276000040863EB050942464FF47A7303FB02F257
:102770000D4B99680D4B1B680D48A0FB03039B0C88
:10278000B1FBF3F31344FB607B681A4607F10803BF
:1027900093E8030082E8030078681037BD46BDE87F
:1027A000B08300BF380D002010E000E0580C02207C
:1027B00083DE1B4380B485B000AFF860B960134678
:1027C000FB71FB79002B06D0FB681A68BB681A43C3
:1027D000FB681A6006E0FB681A68BB68DB431A40B6
:1027E000FB681A6000BF1437BD465DF8047B704774
:1027F00080B588B000AF786039603B68002B07D0A7
:102800003B681B69002B03D03B685B681F2B02DD14
:102810006FF0150394E0142101201AF0F6FE7861A0
:102820007B69002B02D16FF00B0389E00C210120A2
:102830001AF0EBFE38613B69002B03D16FF00B03FC
:10284000FB6179E03B681B69FB603B681B7A022BEC
:102850000CD0022B0DDC002B02D0012B03D008E0A2
:102860000023BB6109E00123BB6106E00223BB61D9
:1028700003E06FF01503FB615BE03B681B68032B13
:1028800003DD6FF01503FB6153E03B681B68002B11
:1028900013D03B681B68012B0DD03B681B68022BD3
:1028A00007D03B681B68032B01D1274B06E00023B0
:1028B00004E0264B02E0264B00E0264B3A69136009
:1028C0003B685B68012202FA03F31A463B695A60CF
:1028D000BB69DAB23B695A723B6900221A72FB6823
:1028E0001A783B699A723B681A687B691A603B6880
:1028F0005A687B695A603B681A7A7B691A727B69ED
:102900003A691A613B681B6818461CF029F87B6914
:102910001B6918461CF050F8F861FB69002B03D0C6
:102920006FF01503FB6104E07B687A691A6000238D
:1029300006E038691AF077FE78691AF074FEFB69D0
:1029400018462037BD4680BD00B0004000A00040C2
:10295000009000400080004080B582B000AF7860F9
:1029600039603B68002B04D17B6800221A60002389
:1029700004E039687868FFF73BFF034618460837DC
:10298000BD4680BD80B582B000AF78607B68002B0B
:1029900002D16FF0150308E07B681B6918461AF036
:1029A00042FE78681AF03FFE002318460837BD46FD
:1029B00080BD80B584B000AF78607B68002B03D009
:1029C0007B685B681F2B02DD6FF0150309E07B68F5
:1029D0001B69FB60FB6800221A72F8681BF0ECFFB1
:1029E000002318461037BD4680BD80B584B000AFC7
:1029F00078600B46FB707B68002B06D07B685B68B9
:102A00001F2B02DCFB78012B02D96FF0150330E09D
:102A10007B681B69FB60FB681B68BB60FB6801226D
:102A20001A72F8681BF0C8FF7B685B68012202FA23
:102A300003F301221946B868FFF7BCFEFB78002BB0
:102A400002D0012B0AD013E07B685B68012202FAF6
:102A500003F31946B8681CF098F809E07B685B68D6
:102A6000012202FA03F31946B8681CF081F800BF8E
:102A7000002318461037BD4680BD80B485B000AF36
:102A8000786039607B68002B03D07B685B681F2B04
:102A900002DD6FF015030EE07B681B69FB60FB68CD
:102AA0001B7A012B03D13B6801221A7002E03B68BC
:102AB00000221A70002318461437BD465DF8047BC7
:102AC000704780B584B000AF78600B46FB707B68C0
:102AD000002B03D07B685B681F2B02DD6FF01503B2
:102AE0003CE07B681B69FB60FB681B68BB607B6824
:102AF0005B68012202FA03F301221946B868FFF766
:102B000059FEFB78022B1AD0022B23DC002B02D0BB
:102B1000012B0AD01EE07B685B68012202FA03F3F6
:102B20001946B8681CF031F817E07B685B68012231
:102B300002FA03F31946B8681CF01AF80DE07B6836
:102B40005B68012202FA03F300221946B868FFF716
:102B500031FE02E06FF0150300E000231846103745
:102B6000BD4680BD80B584B000AF786039607B68B9
:102B7000002B03D07B685B681F2B02DD6FF0150311
:102B800037E07B681B69FB60FB681B68BB607B6888
:102B90005B68012202FA03F301221946B868FFF7C5
:102BA00009FEFB681B7A002B11D17B685B68012250
:102BB00002FA03F31946B8681BF0CCFF02467B68A3
:102BC0005B6822FA03F3DAB23B681A7010E07B68A4
:102BD0005B68012202FA03F31946B8681BF0E2FFB2
:102BE00002467B685B6822FA03F3DAB23B681A702C
:102BF000002318461037BD4680BD80B500AF0020C9
:102C00001BF0F7FF00BF80BD80B500AF01201BF0B7
:102C1000F0FF00BF80BD80B500AF02201BF0E9FFD0
:102C200000BF80BD80B500AF02481CF099F900BF1D
:102C300080BD00BF00D0014080B500AF02481CF04D
:102C40008FF900BF80BD00BF00E0014080B483B0B9
:102C500000AF03463960FB7197F90730002B0BDAA0
:102C60003B68DAB20C49FB7903F00F03043B5201D5
:102C7000D2B20B441A7609E03B68DAB2074997F9F9
:102C800007305201D2B20B4483F8002300BF0C3747
:102C9000BD465DF8047B704700ED00E000E100E018
:102CA00080B582B000AF78607B68013BB3F1807F74
:102CB00001D301230FE00A4A7B68013B53600721DF
:102CC0004FF0FF30FFF7C2FF054B00229A60044B24
:102CD00007221A60002318460837BD4680BD00BF92
:102CE00010E000E080B500AF074B1B68074AA2FB6D
:102CF00003239B091846FFF7D3FF01201DF0D0FCEA
:102D00000346184680BD00BF580C0220D34D621008
:102D100080B500AFFFF7E6FF0346184680BD000010
:102D200080B483B000AF0346FB71FB7903F01F034F
:102D3000012202FA03F1064A97F907305B0942F8CB
:102D4000231000BF0C37BD465DF8047B704700BF01
:102D500000E100E080B483B000AF0346FB71FB7973
:102D600003F01F03012202FA03F1064A97F9073024
:102D70005B09203342F8231000BF0C37BD465DF8D5
:102D8000047B704700E100E080B483B000AF0346ED
:102D90003960FB7197F90730002B0BDA3B68DAB228
:102DA0000C49FB7903F00F03043B5201D2B20B44F0
:102DB0001A7609E03B68DAB2074997F90730520101
:102DC000D2B20B4483F8002300BF0C37BD465DF838
:102DD000047B704700ED00E000E100E080B483B0C8
:102DE00000AF786039607B681A683B681B68D31A4B
:102DF00018460C37BD465DF8047B704780B485B03B
:102E000000AF78600023FB601CE0FB68002B10D053
:102E1000FB68012B0BD0FB68022B06D0FB68032B51
:102E200001D13A2306E0002304E01A2302E019232B
:102E300000E018237A68934201D1012306E0FB6881
:102E40000133FB60FB68032BDFD9002318461437DE
:102E5000BD465DF8047B704780B58AB000AF7860EE
:102E600007F1100300221A605A609A60DA607B68EA
:102E7000404A93425BD07B683E4A934203D07B68D2
:102E80003D4A934251D07B683A4A934207D07B68CF
:102E9000394A934203D07B68384A934243D07B68D7
:102EA000344A93420BD07B68334A934207D07B6805
:102EB000324A934203D07B68314A934231D07B68D7
:102EC0002C4A93420FD07B682B4A93420BD07B68ED
:102ED0002A4A934207D07B68294A934203D07B68F1
:102EE000284A93421BD07B68224A934215D07B68C4
:102EF000214A934211D07B68204A93420DD07B68CF
:102F00001F4A934209D07B681E4A934205D07B68D2
:102F10001D4A934201D10A230AE0002308E0092355
:102F200006E0082304E0072302E0062300E005236F
:102F30003B61164B7B627B6A5B6807F1100207F10D
:102F40000C0118461AF0F6FE38623B6A002B0DD1D0
:102F5000FB689B68002B05D0FB689B68FA68D26809
:102F60001046984778681DF0B1FF00E000BF283791
:102F7000BD4680BD0000014000100140002001401E
:102F8000003001400040014000500140400000205E
:102F900080B584B000AF78607B68184A93420ED049
:102FA0007B68174A934208D07B68164A934201D146
:102FB000022305E04FF0FF3302E0012300E000238D
:102FC0005B01114A1344FB6078681EF081FCFB68CA
:102FD0001B68002B0ED0FB689B69002B03D1FB689C
:102FE0001B69002B03D1FB68DB68002B02D0F8685B
:102FF0001EF038FC00BF1037BD4680BD00200440E5
:103000000030044000400440500D002080B500AF67
:103010000248FFF7BDFF00BF80BD00BF0020044095
:1030200080B500AF0248FFF7B3FF00BF80BD00BF0F
:103030000030044080B500AF0248FFF7A9FF00BF91
:1030400080BD00BF0040044080B500AF0248FFF7DC
:1030500003FF00BF80BD00BF0000014080B500AF8E
:103060000248FFF7F9FE00BF80BD00BF001001401D
:1030700080B500AF0248FFF7EFFE00BF80BD00BF84
:103080000020014080B584B000AF1CF083FB0346F4
:10309000FB60124BBB60FB6803F04003002B19D0B0
:1030A00040201CF081FBBB685B683A46114618461D
:1030B0001AF0F2FD78607B68002B0ADB3B689B68A6
:1030C000002B07D03B689B683A68D2681046984747
:1030D00000E000BF1037BD4680BD00BF30000020BB
:1030E00080B58AB000AF786039607B681B683B4A66
:1030F000934210D07B681B68394A934209D07B68A1
:103100001B68384A934201D1022305E04FF0FF3398
:1031100002E0012300E000233B6207F108030022E4
:103120001A605A609A60DA603B6A002B0BD03B6AE7
:10313000012B06D03B6A022B01D1222304E000239D
:1031400002E00F2300E00E23BB603B68002B02D09F
:10315000254B7B6218E07B68DA687B685B699A4282
:1031600006D17B68DB68002B02D0204B7B620BE032
:103170007B681A697B689B699A4229D17B681B69C5
:10318000002B25D01A4B7B627B6A5B6807F1080233
:1031900007F1180118461AF0CDFDF861FB69002B04
:1031A00018D1144A3B6A5B01134400221A60BB69C0
:1031B0009B68002B0FD0104B01221A70BB699B68D3
:1031C000BA69D268104698470B4B00221A7002E089
:1031D00000BF00E000BF2837BD4680BD002004408E
:1031E0000030044000400440280000201800002067
:1031F00020000020500D0020B00D002080B584B0CC
:1032000000AF786039603B68002B02D16FF0150386
:1032100016E00C2101201AF0F8F9F860FB68002B89
:1032200002D16FF00B030BE03B681A68FB681A6071
:103230003B689A68FB689A607B68FA681A600023AA
:1032400018461037BD4680BD80B584B000AF7860A9
:103250007B68002B02D16FF0150326E00023FB6092
:103260001CE0BB6818461AF0DEF9124AFB68DB0066
:1032700013445B6807F10802114618461AF093FDE3
:103280000346002BEDD00B4AFB68DB0013445B6860
:1032900018461AF0F7FBFB680133FB60FB68062B4E
:1032A000E3D978681AF0BFF9002318461037BD46F5
:1032B00080BD00BF1000002080B58AB000AFF8606C
:1032C000B9607A6007F1100300221A605A609A60B0
:1032D000DA60BB683B61B868FFF790FD0346002BDE
:1032E00002D06FF0570340E1FB68002B02D07B68EF
:1032F000002B02D16FF0150337E17B685B7A032B5B
:1033000000F0C980032B00F32181012B02D0022B96
:1033100066D01BE17B681B7A964ADB0013445B682E
:10332000002B10D17B681B7ADB00924A13440433D4
:10333000914A032118461AF061FB78627B6A002BE0
:1033400001D07B6A11E17B681B7A8A4ADB00134457
:103350005B6807F1100207F1200118461AF0EAFC39
:1033600078627B6A002B2BD0102101201AF04DF9D6
:1033700003463B623B6A002B02D16FF00B03F4E083
:103380003B6ABA681A603B6A7A68D2685A603B6ADC
:103390007A6812689A603B6A7A685268DA607B6879
:1033A0001B7A744ADB0013445B683A6A114618467C
:1033B0001AF0C8FB78627B6A002B00F0CA80CFE06D
:1033C0003B6ABA681A603B6A7A68D2685A603B6A9C
:1033D0007A6812689A603B6A7A685268DA60B8E084
:1033E000644B5B6A002B0AD1634A032163481AF0DD
:1033F00005FB78627B6A002B01D07B6AB5E05D4BF0
:103400005B6A07F12002114618461AF045FC786203
:103410007B6A002B26D0102101201AF0F6F8034613
:103420003B623B6A002B02D16FF00B039DE03B6ACD
:10343000BA681A603B6A7A68D2685A603B6A7A68EE
:1034400012689A603B6A7A685268DA60494B5B6A34
:103450003A6A114618461AF040FB78627B6A002BE4
:103460000FD07DE03B6ABA681A603B6A7A68D2681E
:103470005A603B6A7A6812689A603B6A7A68526856
:10348000DA6002201CF066F978627B6A002B62D059
:103490006FF00F0369E0374B5B6B002B0AD1364AA4
:1034A000032137481AF0AAFA78627B6A002B01D010
:1034B0007B6A5AE07B681B7A2E4ADB0013445B6808
:1034C00007F1100207F1200118461AF033FC786268
:1034D0007B6A002B2AD0102101201AF096F80346AF
:1034E0003B623B6A002B02D16FF00B033DE03B6A6D
:1034F000BA681A603B6A7A68D2685A603B6A7A682E
:1035000012689A603B6A7A685268DA607B681B7A54
:10351000184ADB0013445B683A6A114618461AF0F1
:1035200011FB78627B6A002B17D019E03B6ABA68FE
:103530001A603B6A7A68D2685A603B6A7A68126895
:103540009A603B6A7A685268DA6006E06FF01503A9
:103550000BE000BF02E000BF00E000BF002304E07A
:103560003B6A18461AF05FF87B6A18462837BD4652
:1035700080BD00BF10000020DD2D001034000020B1
:103580004400002080B58AB000AFF860B9607A606E
:1035900000233B6207F1100300221A605A609A6010
:1035A000DA60BB683B61B868FFF728FC0346002B74
:1035B00002D06FF0570332E0FB68002B02D07B682B
:1035C000002B02D16FF0150329E07B685B7A012B99
:1035D00002D0022B04D009E07B68DB687B6105E048
:1035E000114B7B6102201CF0C5F800BF7B681B7A81
:1035F0000E4ADB0013445B6807F1100207F120015B
:1036000018461AF052FC78627B6A002B02D06FF0E9
:10361000120304E03B6A18461AF005F87B6A184664
:103620002837BD4680BD00BF00600040100000206C
:1036300080B485B000AFF860B9601346FB716FF0DD
:10364000570318461437BD465DF8047B704780B4B5
:1036500083B000AF786062B600BF002318460C3715
:10366000BD465DF8047B704780B483B000AF7860DE
:1036700072B600BF002318460C37BD465DF8047BC8
:10368000704780B582B000AF786039603B68502BDE
:1036900002D96FF0150305E03B685BB21846FFF7EF
:1036A0003FFB002318460837BD4680BD80B582B079
:1036B00000AF786039603B68502B02D96FF015037A
:1036C00005E03B685BB21846FFF744FB0023184651
:1036D0000837BD4680BD80B584B000AFF860B960E2
:1036E0007A60BB68502B02D96FF0150306E0BB6807
:1036F0005BB279681846FFF747FB0023184610377E
:10370000BD4680BD80B58AB000AF78607B685B69DC
:103710007B627B685B68032B00F2C28001A252F8D7
:1037200023F000BF353700105F370010C937001095
:1037300035380010684A07F1180307CA83E8070004
:103740007B681B7B002B07D1644A07F10C0307CA77
:1037500083E8070000BFA6E06FF01503B7E0604AFA
:1037600007F1180307CA83E807007B681B7B032B5C
:1037700026D801A252F823F089370010973700109D
:10378000A5370010B3370010564A07F10C0307CADB
:1037900083E8070017E0544A07F10C0307CA83E8DF
:1037A000070010E0514A07F10C0307CA83E807003D
:1037B00009E04F4A07F10C0307CA83E8070002E05B
:1037C0006FF0150383E06EE04A4A07F1180307CA59
:1037D00083E807007B681B7B032B27D801A252F8E4
:1037E00023F000BFF5370010033800101138001027
:1037F0001F380010404A07F10C0307CA83E807008E
:1038000017E03E4A07F10C0307CA83E8070010E0FF
:103810003B4A07F10C0307CA83E8070009E0394A6D
:1038200007F10C0307CA83E8070002E06FF01503F5
:103830004DE038E0344A07F1180307CA83E807006F
:103840007B681B7B032B27D801A252F823F000BF13
:10385000613800106F3800107D3800108B38001070
:10386000254A07F10C0307CA83E8070017E0234A3B
:1038700007F10C0307CA83E8070010E0204A07F1AC
:103880000C0307CA83E8070009E0204A07F10C038C
:1038900007CA83E8070002E06FF0150317E002E0B3
:1038A0006FF0150313E07B6A1B685B7987F82230A1
:1038B0007B6A1B685B79BB7507F1180318461BF020
:1038C0007BF807F10C0318461BF076F80023184626
:1038D0002837BD4680BD00BFD4370310C83703105A
:1038E000E0370310EC370310F837031004380310E7
:1038F000103803101C380310283803103438031014
:10390000403803104C380310583803106438031043
:1039100080B588B000AF786039607B685B69BB6157
:103920003B685A69BB695B689A4206D13B689A69F1
:10393000BB699B689A4200F094807B685B68002BAF
:1039400013D07B685B68012B0DD07B685B68022B12
:1039500007D07B685B68032B01D1444B06E0002352
:1039600004E0434B02E0434B00E0434B7B617B6947
:103970001B693B6178691CF085F80346FB60FB68B6
:103980005A083E4B1344FA68B3FBF2F3BB603B6842
:103990005A69BB695B689A4227D03B685B69002B18
:1039A00002D10123FB6109E03B685B694FF47A7245
:1039B00003FB02F2BB68B2FBF3F3FB61FB69FF2B75
:1039C00003D92F4820F008FC47E07B691B6923F0EE
:1039D000FF027B691A61F969FF201AF0FDFB0246BC
:1039E0007B691B691A437B691A613B689A69BB69E9
:1039F0009B689A4228D03B685B69002B02D1012367
:103A0000FB6109E03B689B694FF47A7203FB02F2A9
:103A1000BB68B2FBF3F3FB61FB69FF2B03D91948C9
:103A200020F0DAFB19E07B691B6923F47F427B6994
:103A30001A61F9694FF47F401AF0CEFB02467B69A8
:103A40001B691A437B691A613B685A69BB695A60F2
:103A50003B689A69BB699A6004E07B693A691A61BC
:103A600000E000BF2037BD4680BD00BF00E00B4036
:103A700000800440007004400060044000CA9A3B8B
:103A8000680103109401031080B588B002AF78601C
:103A90007B685B69FB60FB681B68BB607B685B687D
:103AA000002B13D07B685B68012B0DD07B685B68B3
:103AB000022B07D07B685B68032B01D16C4806E0C2
:103AC000002004E06B4802E06B4800E06B48BB68F4
:103AD0001B681946BB681B791A467B689B68019373
:103AE00000920B46002201211BF0EEFE38613B697B
:103AF000002B03D06FF015033B6197E07868FFF768
:103B000001FE38613B69002B40F08F807B685B7B56
:103B1000032B15D801A252F823F000BF393B001047
:103B20002D3B0010333B0010393B00100123FB7587
:103B300009E00223FB7506E07B685B7BFB7502E016
:103B40006FF015038FE07B685B68002B13D07B68F8
:103B50005B68012B0DD07B685B68022B07D07B680C
:103B60005B68032B01D1424B06E0002304E0414B8C
:103B700002E0414B00E0414BFA7D114618461BF034
:103B8000F9FF38613B69002B03D06FF015033B61EF
:103B90004CE07B685B68002B13D07B685B68012B73
:103BA0000DD07B685B68022B07D07B685B68032BBA
:103BB00001D12F4B06E0002304E02E4B02E02E4BF8
:103BC00000E02E4B012118461BF0C4FF38613B6911
:103BD000002B03D06FF015033B6127E07B685B6827
:103BE000002B13D07B685B68012B0DD07B685B6872
:103BF000022B07D07B685B68032B01D11C4B06E0CE
:103C0000002304E01B4B02E01B4B00E01B4B082190
:103C100018461BF085FF38613B69002B03D06FF01D
:103C200015033B6102E000231DE000BF7B685B6879
:103C3000002B13D07B685B68012B0DD07B685B6821
:103C4000022B07D07B685B68032B01D1084B06E091
:103C5000002304E0074B02E0074B00E0074B184647
:103C60001BF0C2FE3B6918461837BD4680BD00BF39
:103C700000E00B40008004400070044000600440FD
:103C800080B586B000AF786039603B68002B03D008
:103C90003B681B69002B02D16FF015036BE01C2100
:103CA000012019F0B2FC38613B69002B02D16FF0A2
:103CB0000B0360E00C21012019F0A7FCF860FB6801
:103CC000002B03D16FF00B037B614DE03B681B6958
:103CD000BB603B681A683B695A603B685A683B693D
:103CE0009A603B681A7A3B691A733B685A7A3B6957
:103CF0005A733B689A7A3B699A73FB68BA681A6090
:103D00003B69FA685A613B695B68032B03D96FF022
:103D100015037B6128E03869FFF7B6FE78617B699F
:103D2000002B04D17B683A691A60002323E000BFAE
:103D30003B695B68002B13D03B695B68012B0DD09E
:103D40003B695B68022B07D03B695B68032B01D1A1
:103D50000B4B06E0002304E00A4B02E00A4B00E0B4
:103D60000A4B18461BF040FEF86819F05CFC3869F5
:103D700019F059FC7B6918461837BD4680BD00BF55
:103D800000E00B40008004400070044000600440EC
:103D900080B582B000AF78607B68002B02D16FF0F5
:103DA000150324E07B685B68002B13D07B685B689D
:103DB000012B0DD07B685B68022B07D07B685B68AA
:103DC000032B01D10C4B06E0002304E00B4B02E077
:103DD0000B4B00E00B4B18461BF006FE7B685B6943
:103DE000184619F020FC786819F01DFC00231846CD
:103DF0000837BD4680BD00BF00E00B400080044096
:103E0000007004400060044080B58CB000AFF860E2
:103E1000B9607A60FB685B68002B13D0FB685B6855
:103E2000012B0DD0FB685B68022B07D0FB685B6839
:103E3000032B01D1784B06E0002304E0774B02E02E
:103E4000774B00E0774BFB610023FB620023BB62F2
:103E5000012387F82730012387F8263000233B62AF
:103E6000FB68002B02D0BB68002B02D16FF015035A
:103E7000A0E1FB681B7BBB61FB685B686A4A52F888
:103E80002330BA699A420ED0F868FFF7FDFD7861D9
:103E90007B69002B01D07B698CE1FB685B68624920
:103EA000BA6941F82320FB695B6823F47022FB693F
:103EB0005A60FB681B7B1A460123934019464FF456
:103EC00070201AF089F90246FB695B681A43FB69A6
:103ED0005A6000233B6267E1FB69DB6943F08012B3
:103EE000FB69DA61FB691B6A43F40062FB691A62D1
:103EF000FB6900229A603A6A1346DB009B1A9B001A
:103F00001A46BB6813441B7B002B06D0FB695B6819
:103F100023F48072FB695A6005E0FB695B6843F437
:103F20008072FB695A603A6A1346DB009B1A9B0059
:103F30001A46BB6813441946F868FFF7E9FC3A6A69
:103F40001346DB009B1A9B001A46BB6813441B6890
:103F5000002B3AD0BB689A68FB699A60002387F807
:103F60002630FB69DB6943F04002FB69DA613A6A9B
:103F70001346DB009B1A9B001A46BB6813441A6861
:103F8000FB6AD1183A6A1346DB009B1A9B001A465B
:103F9000BB6813449A68FB6AD31A1A46F8691BF087
:103FA00015FE0246FB6A1344FB623A6A1346DB00C5
:103FB0009B1A9B001A46BB6813449B68FA6A9A4294
:103FC0000CBF0123002387F826303A6A1346DB0032
:103FD0009B1A9B001A46BB6813445B68002B14D0E5
:103FE000BB689B68194611481AF0F6F80246FB694F
:103FF0009B681A43FB699A60FB69DB6943F48002A2
:10400000FB69DA61002387F82730FB695B6843F0BE
:104010002002FB695A6095E000E00B4000800440FC
:104020000070044000600440400D00200000FFFFCD
:104030003A6A1346DB009B1A9B001A46BB6813447E
:104040001B68002B39D03A6A1346DB009B1A9B0091
:104050001A46BB6813449B68FA6A9A422DD23A6AA0
:104060001346DB009B1A9B001A46BB6813441A6870
:10407000FB6AD1183A6A1346DB009B1A9B001A466A
:10408000BB6813449A68FB6AD31A1A46F8691BF096
:104090009DFD0246FB6A1344FB623A6A1346DB004D
:1040A0009B1A9B001A46BB6813449B68FA6A9A42A3
:1040B0000CBF0123002387F826303A6A1346DB0041
:1040C0009B1A9B001A46BB6813445B68002B39D0CF
:1040D0003A6A1346DB009B1A9B001A46BB681344DE
:1040E0009B68BA6A9A422DD23A6A1346DB009B1A41
:1040F0009B001A46BB6813445A68BB6AD1183A6AD7
:104100001346DB009B1A9B001A46BB6813449A684F
:10411000BB6AD31A1A46F8691BF03CFD0246BB6A1B
:104120001344BB623A6A1346DB009B1A9B001A4693
:10413000BB6813449B68BA6A9A420CBF01230023F0
:1041400087F8273097F8273083F00103DBB2002B84
:104150007FF46EAF97F8263083F00103DBB2002BBB
:104160007FF466AF00BFFB691B6A03F40063002B9A
:10417000F9D0FB695B6823F02002FB695A60FB6998
:10418000DB6923F04012FB69DA613A6A1346DB000F
:104190009B1A9B001A46BB6813441B691846FEF71E
:1041A000A5FA3B6A01333B623A6A7B689A42FFF4A4
:1041B00093AE002318463037BD4680BD80B58CB025
:1041C00000AFF860B9601346FB8007F114030022CA
:1041D0001A605A609A60DA601A615A619A61BB6823
:1041E0007B61BB68BB61FB88FB61012387F82030E2
:1041F0000123BB6207F1140301221946F868FFF797
:1042000003FE034618463037BD4680BD80B483B0F8
:1042100000AF786039607B68B3F5805F02D96FF0DA
:10422000150360E07B68012B03D83B6800221A80ED
:1042300058E07B68032B03D83B6808221A8051E0C2
:104240007B68072B03D83B6810221A804AE07B6802
:104250000F2B03D83B6818221A8043E07B681F2B82
:1042600003D83B6820221A803CE07B683F2B03D8B0
:104270003B6828221A8035E07B687F2B03D83B6897
:1042800030221A802EE07B68FF2B03D83B6838224F
:104290001A8027E07B68B3F5007F04D23B684FF4B7
:1042A00080721A801EE07B68B3F5806F04D23B6891
:1042B0004FF488721A8015E07B68B3F5006F04D262
:1042C0003B684FF48C721A800CE07B68B3F5805F1A
:1042D00004D23B684FF490721A8003E03B684FF4BD
:1042E00094721A80002318460C37BD465DF8047B93
:1042F0007047000080B588B000AF786039603B68D7
:10430000002B03D03B681B88052B02D96FF01503E7
:104310007EE01821012019F078F9B861BB69002B03
:1043200002D16FF00B0373E00C21012019F06DF93D
:1043300078617B69002B03D16FF00B03FB6163E0B5
:104340003B681A88BB699A803B685A68BB699A6067
:104350003B689A68BB69DA603B681B88002B1FD0FA
:104360003B681B88012B19D03B681B88022B13D09C
:104370003B681B88032B0DD03B681B88042B07D0A0
:104380003B681B88052B01D1234B0AE0002308E082
:10439000224B06E0224B04E0224B02E0224B00E0DD
:1043A000224B3B61224B1B685A083B685B68B2FB9F
:1043B000F3F3FB6007F10A031946F868FFF726FFDD
:1043C000F861FB69002B1BD17B6901229A70BB69E4
:1043D000DA687B695A607B6901229A607A897B6915
:1043E0001A80BB697A695A6138691CF0D3FC796913
:1043F00038691CF033FC7B68BA691A60002307E057
:1044000000BF786919F00FF9B86919F00CF9FB6968
:1044100018462037BD4680BD005001400040014095
:104420000030014000200140001001400000014028
:10443000580C022080B582B000AF78607B68002BFA
:1044400002D16FF0150330E07B689B88002B1FD0F2
:104450007B689B88012B19D07B689B88022B13D02B
:104460007B689B88032B0DD07B689B88042B07D02F
:104470007B689B88052B01D10E4B0AE0002308E0E6
:104480000D4B06E00D4B04E00D4B02E00D4B00E040
:104490000D4B18461CF07EFC7B685B69184619F0D2
:1044A000C2F8786819F0BFF8002318460837BD46EF
:1044B00080BD00BF0050014000400140003001407D
:1044C00000200140001001400000014080B582B092
:1044D00000AF78607B68002B02D16FF0150328E0F5
:1044E0007B689B88002B1FD07B689B88012B19D091
:1044F0007B689B88022B13D07B689B88032B0DD095
:104500007B689B88042B07D07B689B88052B01D197
:104510000A4B0AE0002308E0094B06E0094B04E0DF
:10452000094B02E0094B00E0094B18461CF0ACFCBB
:10453000002318460837BD4680BD00BF005001402B
:1045400000400140003001400020014000100140C7
:104550000000014080B582B000AF78607B68002B1E
:1045600002D16FF0150328E07B689B88002B1FD0D9
:104570007B689B88012B19D07B689B88022B13D00A
:104580007B689B88032B0DD07B689B88042B07D00E
:104590007B689B88052B01D10A4B0AE0002308E0C9
:1045A000094B06E0094B04E0094B02E0094B00E02F
:1045B000094B18461CF073FC002318460837BD460B
:1045C00080BD00BF0050014000400140003001406C
:1045D00000200140001001400000014080B582B081
:1045E00000AF786039607B68002B02D16FF0150353
:1045F0002BE07B689B88002B1FD07B689B88012B5E
:1046000019D07B689B88022B13D07B689B88032B77
:104610000DD07B689B88042B07D07B689B88052B7B
:1046200001D10C4B0AE0002308E00B4B06E00B4BDA
:1046300004E00B4B02E00B4B00E00B4B18461CF068
:1046400039FC02463B681A60002318460837BD460D
:1046500080BD00BF005001400040014000300140DB
:1046600000200140001001400000014080B582B0F0
:1046700000AF786039607B68002B05D01B4B1B684E
:104680005B083A689A4202D36FF0150329E07B6811
:104690009B88002B1FD07B689B88012B19D07B68DF
:1046A0009B88022B13D07B689B88032B0DD07B68E3
:1046B0009B88042B07D07B689B88052B01D10C4B72
:1046C0000AE0002308E00B4B06E00B4B04E00B4B29
:1046D00002E00B4B00E00B4B396818461CF001FC64
:1046E000002318460837BD4680BD00BF580C022085
:1046F00000500140004001400030014000200140D6
:10470000001001400000014080B483B000AF786029
:1047100039607B68002B02D16FF0150304E07B68E1
:104720009A683B681A60002318460C37BD465DF84E
:10473000047B704780B588B000AF786039607B68D3
:10474000002B02D16FF01503F9E07B689B88002BEA
:104750001FD07B689B88012B19D07B689B88022B1C
:1047600013D07B689B88032B0DD07B689B88042B20
:1047700007D07B689B88052B01D1734B0AE000238F
:1047800008E0724B06E0724B04E0724B02E0724BA1
:1047900000E0724B1B691946802019F01DFDF8617D
:1047A0006F4B1B685A083B68B2FBF3F3BB6107F120
:1047B0000E031946B869FFF729FD78617B69002B64
:1047C00001D07B69BBE07B685B693B61FA893B692F
:1047D0001A8007F1080319467868FCF79BFF786197
:1047E0007B69002B01D07B69A9E07B689B88002B4B
:1047F0001FD07B689B88012B19D07B689B88022B7C
:1048000013D07B689B88032B0DD07B689B88042B7F
:1048100007D07B689B88052B01D14B4B0AE0002316
:1048200008E04A4B06E04A4B04E04A4B02E04A4BA0
:1048300000E04A4B18461CF0ADFA7B689B88002BC1
:104840001FD07B689B88012B19D07B689B88022B2B
:1048500013D07B689B88032B0DD07B689B88042B2F
:1048600007D07B689B88052B01D1374B0AE00023DA
:1048700008E0364B06E0364B04E0364B02E0364BA0
:1048800000E0364B396918461CF0E8F97B689B88D4
:10489000002B1FD07B689B88012B19D07B689B88DD
:1048A000022B13D07B689B88032B0DD07B689B88E1
:1048B000042B07D07B689B88052B01D1224B0AE093
:1048C000002308E0214B06E0214B04E0214B02E0ED
:1048D000214B00E0214BBA68114618461CF001FB41
:1048E000FB69002B27D07B689B88002B1FD07B683F
:1048F0009B88012B19D07B689B88022B13D07B6887
:104900009B88032B0DD07B689B88042B07D07B688A
:104910009B88052B01D10C4B0AE0002308E00B4BD0
:1049200006E00B4B04E00B4B02E00B4B00E00B4BA3
:1049300018461CF0A9FA7B683A689A60002318466A
:104940002037BD4680BD00BF0050014000400140FF
:1049500000300140002001400010014000000140F3
:10496000580C022080B483B000AF786039606FF0DB
:10497000570318460C37BD465DF8047B70470000AE
:1049800080B586B000AF78600B46FB707B68022B69
:1049900017D07B68022B1BD87B68002B03D07B6869
:1049A000012B07D014E0124A07F10C0307CA83E871
:1049B000070010E00F4A07F10C0307CA83E807005D
:1049C00009E00D4A07F10C0307CA83E8070002E07B
:1049D0006FF0150307E0FB78BB7507F10C03184671
:1049E00019F0EAFF002318461837BD4680BD00BF06
:1049F0008037031098370310B037031080B586B0A6
:104A000000AFF860B9607A6000237B61FB68002B1F
:104A100005D0BB68002B02D07B68002B02D16FF061
:104A2000150343E0FB68DB68002B1FD000237B618C
:104A300016E0FB68D868BA687B691344194618F019
:104A4000B2FE38613B69002B07D07B69002B01D097
:104A50007B692BE06FF00A0328E07B6901337B61FF
:104A60007B687A699A42E4D37B691FE0FB681B7913
:104A7000002B0DD0FB681B79012B07D0FB681B793D
:104A8000022B01D10B4B04E0002302E00A4B00E0B3
:104A90000A4B3A1DB96818461CF0D8FD38613B69CD
:104AA000002B02D06FF0040300E07B681846183733
:104AB000BD4680BD0040044000300440002004405A
:104AC00080B588B000AFF860B9607A600023FB6100
:104AD000FB68002B05D0BB68002B02D07B68002B45
:104AE0004ED16FF015034FE07B68202B28BF2023A9
:104AF0007B6100BFFB681B79002B0DD0FB681B7925
:104B0000012B07D0FB681B79022B01D1204B04E05D
:104B1000002302E01F4B00E01F4B18461CF080FEF4
:104B2000034603F04003002BE4D0FB681B79002B05
:104B30000DD0FB681B79012B07D0FB681B79022B7A
:104B400001D1134B04E0002302E0124B00E0124BB2
:104B5000FA69B968114407F1140218461CF086FD81
:104B6000B8617B69FA691344FB617B691A467B680B
:104B70009B1A7B60BB69002B02D06FF0040303E03B
:104B80007B68002BB0D1FB6918462037BD4680BD3D
:104B900000400440003004400020044080B586B04E
:104BA00000AFF860B9607A60FB68002B05D0BB6885
:104BB000002B02D07B68002B02D16FF0150358E068
:104BC000FB681B797B617B69002B0BD07B69012B18
:104BD00006D07B69022B01D1284B04E0002302E0C0
:104BE000274B00E0274B28497A6952010A44136099
:104BF000254A7B695B0113440833BA681A60224A6C
:104C00007B695B01134410337A681A601E4A7B6922
:104C10005B011344043300221A601B4A7B695B0169
:104C200013440C3300221A60174A7B695B0113445A
:104C3000183300221A60144A7B695B0113441C3349
:104C4000124A1A60124B1B7883F00103DBB2002B6F
:104C50000ED07B695B010C4A134418461CF002FE1F
:104C600038613B6913F1060F02D16FF00F0300E0CA
:104C7000002318461837BD4680BD00BF00400440E1
:104C80000030044000200440500D0020E1300010AE
:104C9000B00D002080B586B000AFF860B9607A60D2
:104CA000FB68002B05D0BB68002B02D07B68002B73
:104CB00002D16FF0150358E0FB681B797B617B69BB
:104CC000002B0BD07B69012B06D07B69022B01D115
:104CD000284B04E0002302E0274B00E0274B284943
:104CE0007A6952010A441360254A7B695B011344C7
:104CF0000433BA681A60224A7B695B0113440C339F
:104D00007A681A601E4A7B695B01134408330022EB
:104D10001A601B4A7B695B011344103300221A603E
:104D2000174A7B695B011344143300221A60144A4A
:104D30007B695B0113441C33124A1A60124B1B78C7
:104D400083F00103DBB2002B0ED07B695B010C4AC0
:104D5000134418461CF086FD38613B6913F1060FB9
:104D600002D16FF00F0300E0002318461837BD464C
:104D700080BD00BF004004400030044000200440DB
:104D8000500D0020E1300010B00D002080B584B03F
:104D900000AF78607B68FB60FB68DB68074A1278CD
:104DA0001146184618F020FD01220449F868FFF763
:104DB000F5FE00BF1037BD4680BD00BFB10D00201D
:104DC00080B592B000AF786039603B68002B03D0AB
:104DD0003B689B69002B02D16FF01503A4E11C21F5
:104DE000012018F012FC38633B6B002B02D16FF0EE
:104DF0000B0399E10421012018F007FCF862FB6A1B
:104E0000002B03D16FF00B037B6489E13B6BFA6AE3
:104E10009A613B681B78002B0DD03B681B78012BF7
:104E200007D03B681B78022B01D1944B04E0002390
:104E300002E0934B00E0934BBB623B689B697B6253
:104E40003B681A783B6B1A713B68DA683B6B1A61F6
:104E50003B685B7C042B1CD801A252F823F000BFF6
:104E6000754E00107B4E0010814E0010874E0010D2
:104E70008D4E001000237B630FE003237B630CE067
:104E800004237B6309E002237B6306E001237B6349
:104E900003E06FF015037B643FE13B681B7C032B51
:104EA00016D801A252F823F0B94E0010BF4E0010E0
:104EB000C54E0010CB4E00100523FB630CE006230B
:104EC000FB6309E00723FB6306E00823FB6303E0C1
:104ED0006FF015037B6420E13B689B7C002B02D0C4
:104EE000012B03D005E000233B6406E001233B6473
:104EF00003E06FF015037B640FE17B6A1B78022BE4
:104F00000CD0022B0DDC002B02D0012B03D008E0CB
:104F10000023BB6309E00123BB6306E00223BB63FC
:104F200003E06FF015037B64F7E03B6B1B691946E8
:104F3000B86A1CF0C5F978647B6C002B03D06FF065
:104F400015037B64E9E03B6B1B791A467B6A5B784F
:104F500019461046FFF714FD78647B6C002B40F077
:104F6000D480F96BB86A1CF095FA78647B6C002BDE
:104F700003D06FF015037B64CCE07B6BDBB219468A
:104F8000B86A1CF0A5FA78647B6C002B03D06FF034
:104F900015037B64BEE03B6CDBB21946B86A1CF0BB
:104FA00087FA78647B6C002B03D06FF015037B6469
:104FB000B0E0BB6BDBB208221946B86A1CF098FA65
:104FC00078647B6C002B03D06FF015037B64A1E049
:104FD0007B683A6B1A603B681B7A002B00F0888074
:104FE0003B6B0C33184618F088FB78647B6C002B05
:104FF00040F08D8007F1180300221A605A609A6011
:10500000214BFB61FB6A07F1180211461846FCF7B9
:105010007FF878647B6C002B7BD11C4BBB603B6BB7
:10502000FB6002233B7401237B743B6B1B79002BD9
:105030000DD03B6B1B79012B07D03B6B1B79022BEF
:1050400001D10E4B04E0002302E00D4B00E00D4BBC
:105050007B61FB6A18683B6B1B79002B18D03B6B9C
:105060001B79012B07D03B6B1B79022B01D122232B
:105070000FE000230DE00F230BE000BF00400440D1
:105080000030044000200440400103108D4D00100A
:105090000E2307F108021946FCF787F878647B6C49
:1050A000002B27D1FB6A1A683B6B1B79002B0DD0B4
:1050B0003B6B1B79012B07D03B6B1B79022B01D17A
:1050C000222304E0002302E00F2300E00E23194610
:1050D0001046FCF7B2F878647B6C002B0CD10122EF
:1050E0001349386BFFF75AFD78647B6C002B05D1B0
:1050F000002319E000BF02E000BF00E000BFFB6A30
:105100001B681846FCF731F804E000BF02E000BF5E
:1051100000E000BFB86A1CF05FF9F86A18F083FA83
:10512000386B18F080FA7B6C18464837BD4680BD56
:10513000B10D002080B588B000AF786007F10C0396
:1051400000221A605A609A60DA6002233B750123DC
:105150007B757B681B79002B0DD07B681B79012B3D
:1051600007D07B681B79022B01D13D4B04E0002363
:1051700002E03C4B00E03C4BBB617B68002B02D162
:105180006FF0150367E07B689B69FB617B68DB68F8
:10519000002B41D0FB691A687B681B79002B0DD06E
:1051A0007B681B79012B07D07B681B79022B01D10F
:1051B000222304E0002302E00F2300E00E2319461F
:1051C0001046FCF75CF8FB6918687B681B79002BBC
:1051D0000DD07B681B79012B07D07B681B79022BD4
:1051E00001D1222304E0002302E00F2300E00E237C
:1051F00007F10C021946FBF7FCFFFB691B68184618
:10520000FBF7B3FF7B68DB68184618F00EFB7B6882
:10521000DB68184618F007FA7B681B79002B0DD065
:105220007B681B79012B07D07B681B79022B01D18E
:105230000B4B04E0002302E00A4B00E00A4B184647
:105240001CF0CAF87B689B69184618F0ECF978687E
:1052500018F0E9F9002318462037BD4680BD00BF8D
:1052600000400440003004400020044080B483B07B
:1052700000AF78606FF0570318460C37BD465DF8F5
:10528000047B704780B582B000AF78607B68002BEC
:105290000BD0084A7B681360074B1B689868002393
:1052A000022200211FF0C8F900E000BF0837BD4608
:1052B00080BD00BFB40D0020FC00002080B582B08E
:1052C00000AF78607B68002B04DB7B68022B01DC7D
:1052D000002306E01EF08EFA034609221A604FF002
:1052E000FF3318460837BD4680BD80B582B000AF99
:1052F00078607B68002B04DB7B68022B01DC0123D8
:1053000005E01EF077FA034609221A6000231846CA
:105310000837BD4680BD80B584B000AFF860B96085
:105320007A601EF067FA034609221A604FF0FF33D5
:1053300018461037BD4680BD80B582B000AF78609A
:1053400039607B68002B08DB7B68022B05DC3B683F
:105350004FF400525A60002305E01EF04BFA03465A
:1053600009221A60002318460837BD4680BD000098
:1053700080B586B000AFF860B9607A60FB68002B3A
:1053800015D1104B1B687A68B9681846FCF72CFADF
:1053900078617B69002B08DA1EF02CFA02467B69E3
:1053A0005B4213604FF0FF3308E07B6906E01EF0BC
:1053B00021FA034609221A604FF0FF3318461837C6
:1053C000BD4680BDB40D002080B586B000AFF8604A
:1053D000B9607A60FB68012B02D0FB68022B15D103
:1053E000104B1B687A68B9681846FCF72FFA786189
:1053F0007B69002B08DA1EF0FDF902467B695B42EF
:1054000013604FF0FF3308E07B6906E01EF0F2F90D
:10541000034609221A604FF0FF3318461837BD467D
:1054200080BD00BFB40D002080B483B000AF7860B1
:10543000064B1B787A6808339B0013445B68184658
:105440000C37BD465DF8047B704700BF601000203C
:1054500080B400AF034B1B681846BD465DF8047B63
:10546000704700BF6410002080B5C8B000AF07F5DA
:105470009073A3F58A73186007F59073A3F58C7386
:10548000196007F59073A3F58E731A600023C7F8AF
:105490001C3107F59073A3F58C731B68B3F80631C4
:1054A000012B0BD007F59073A3F58C731B68B3F831
:1054B0000631FF2B02D0D7F81C318AE007F5907334
:1054C000A3F58C731B68B3F804310C2B08D007F5D7
:1054D0009073A3F58C731B68B3F80431FF2B2ED1A6
:1054E00007F59073A3F58A731B6804331B68002BC0
:1054F00025D007F59073A3F58A731B681A1D07F171
:1055000014031146184603F0ABFEC7F81801D7F88C
:105510001831002B13D107F59073A3F58C731B681A
:1055200007F114021146184603F039FE0346002B1A
:1055300005D0D7F81C3143F00203C7F81C31274BC4
:105540001B78194607F59073A3F58A731A6801F161
:1055500008039B0013445A6807F1140311461846C8
:1055600003F002FFC7F81801D7F81831002B2ED12D
:1055700007F59073A3F58C731B6807F114021146AD
:10558000184603F00CFE0346002B20D007F590735D
:10559000A3F58A731B6804331B68002B17D007F52B
:1055A0009073A3F58C731B68B3F80431012B08D0FA
:1055B00007F59073A3F58C731B68B3F80431FF2BC8
:1055C00005D1D7F81C3143F00103C7F81C31D7F8D7
:1055D0001C31184607F59077BD4680BD601000204D
:1055E00080B5C6B000AF07F58C73A3F58A73186059
:1055F00007F58C73A3F58C7319600023C7F8143179
:1056000007F58C73A3F58C731B68B3F80631012B77
:105610000AD007F58C73A3F58C731B68B3F80631B9
:10562000FF2B01D00023B6E007F10C03184603F06E
:10563000C7FEC7F81001D7F81031002B25D107F5A8
:105640008C73A3F58C731B6807F10C021146184686
:1056500003F0A5FD0346002B17D007F58C73A3F5C7
:105660008C731B68B3F804310C2B08D007F58C73CE
:10567000A3F58C731B68B3F80431FF2B05D1D7F861
:10568000143143F01003C7F8143107F58C73A3F5F8
:105690008A7307F10C000022196803F0D3FEC7F8E3
:1056A0001001D7F81031002B25D107F58C73A3F525
:1056B0008C731B6807F10C021146184603F06FFD4E
:1056C0000346002B17D007F58C73A3F58C731B686A
:1056D000B3F804310C2B08D007F58C73A3F58C7349
:1056E0001B68B3F80431FF2B05D1D7F8143143F010
:1056F0002003C7F8143107F58C73A3F58A7307F1FB
:105700000C000122196803F09DFEC7F81001D7F8BC
:105710001031002B3DD107F58C73A3F58C731B68FA
:1057200007F10C021146184603F039FD0346002B21
:105730002FD007F58C73A3F58C731B68B3F8043175
:10574000212B08D007F58C73A3F58C731B68B3F875
:105750000431FF2B05D1D7F8143143F04003C7F8CB
:10576000143107F58C73A3F58C731B68B3F80431FF
:10577000102B08D007F58C73A3F58C731B68B3F856
:105780000431FF2B05D1D7F8143143F08003C7F85B
:105790001431D7F81431184607F58C77BD4680BD13
:1057A00080B5C6B000AF07F58C73A3F58A73186097
:1057B00007F58C73A3F58C7319600023C7F81431B7
:1057C00007F58C73A3F58C731B68B3F80631012BB6
:1057D0000AD007F58C73A3F58C731B68B3F80631F8
:1057E000FF2B01D0002385E007F58C73A3F58A73A6
:1057F00007F10C000022196803F088FEC7F81001B9
:10580000D7F81031002B25D107F58C73A3F58C73D5
:105810001B6807F10C021146184603F0C0FC034652
:10582000002B17D007F58C73A3F58C731B68B3F8A6
:1058300004310C2B08D007F58C73A3F58C731B680F
:10584000B3F80431FF2B05D1D7F8143143F010031E
:10585000C7F8143107F58C73A3F58A7307F10C00B0
:105860000122196803F052FEC7F81001D7F8103171
:10587000002B3DD107F58C73A3F58C731B6807F1E2
:105880000C021146184603F08AFC0346002B2FD069
:1058900007F58C73A3F58C731B68B3F80431212BC7
:1058A00008D007F58C73A3F58C731B68B3F804312B
:1058B000FF2B05D1D7F8143143F04003C7F814315A
:1058C00007F58C73A3F58C731B68B3F80431102BA8
:1058D00008D007F58C73A3F58C731B68B3F80431FB
:1058E000FF2B05D1D7F8143143F08003C7F81431EA
:1058F000D7F81431184607F58C77BD4680BD80B5C2
:1059000084B000AF786039607B6898687B689B8959
:105910003A68194603F005FC03461A467B689A81EB
:105920007B689B894FF6FF72934202D16FF00503AB
:1059300042E07B6898687B689B8907F10C01022232
:105940000CF070FF0346FB81FB89022B02D06FF045
:10595000050331E07B689A89FB8913449AB27B681E
:105960009A81BB89184605F018F803461A463B6829
:10597000A3F804217B6898687B689B8907F10C0178
:1059800002220CF04FFF0346FB81FB89022B02D061
:105990006FF0050310E07B689A89FB8913449AB283
:1059A0007B689A81BB89184604F0F7FF03461A46C4
:1059B0003B68A3F80621002318461037BD4680BD7A
:1059C00080B584B000AF786039607B689B681A89C5
:1059D0007B689B899A4202D26FF0050332E07B68B4
:1059E0005B8A002B2CD07B685B8A013B9AB27B6878
:1059F0005A824FF48572002138681EF02DFB3B68F7
:105A000019467868FFF77BFFF860FB68002B01D030
:105A1000FB6817E03B68B3F8063123F4FF4323F03B
:105A20007F039AB23B68A3F808213B68B3F80631BC
:105A3000C3F30E039AB23B68A3F80621002301E0EA
:105A40006FF0050318461037BD4680BD80B588B09D
:105A500000AFF860B9607A60FB685B8A002B02D007
:105A60006FF005038BE0FB689B681A89FB689B89D4
:105A70009A4202D26FF0050381E07B681B88002BFD
:105A80007BD07B681B88013B9AB27B681A804FF4FD
:105A90008A720021B8681EF0DFFABB681946F86800
:105AA000FFF72DFFF861FB69002B01D0FB6966E071
:105AB000BB68B3F8063123F4FF4323F07F039AB2A7
:105AC000BB68A3F80821BB68B3F80631C3F30E0323
:105AD0009AB2BB68A3F80621FB689868FB689B89AB
