:020000041000EA
:1000000000001020055902104159021043590210F6
:1000100045590210475902104959021000000000CA
:100020000000000000000000000000004B5902101A
:100030004D590210000000004F59021059360010AF
:10004000535902105559021057590210A544001077
:100050005B590210694400107D4400109144001067
:10006000635902106559021067590210695902104C
:100070006B590210E93B00102D4400104144001060
:1000800073590210755902107759021079590210EC
:100090007B5902107D5902107F59021081590210BC
:1000A0008B3B0010993B0010A73B001089590210B0
:1000B0008B5902108D5902108F590210915902105C
:1000C0009359021095590210554400109959021085
:1000D000FD3B00109D5902109F590210A1590210BA
:1000E000A3590210A5590210A7590210A9590210CC
:1000F000AB590210AD590210AF590210B15902109C
:10010000B3590210B5590210B7590210B95902106B
:10011000BB590210BD590210BF590210C15902103B
:10012000C3590210C5590210C7590210C95902100B
:10013000CB590210CD590210CF590210D1590210DB
:10014000D3590210D5590210D7590210D9590210AB
:10015000DB590210DD590210DF590210E15902107B
:10016000E3590210E5590210E7590210E95902104B
:10017000EB590210ED590210EF590210F15902101B
:10018000F359021010B5054C237833B9044B13B161
:100190000448AFF300800123237010BDF00A002053
:1001A00000000000EC6F031008B5034B1BB10349BE
:1001B0000348AFF3008008BD00000000F40A0020EF
:1001C000EC6F031080B586B000AFF8607B600B4623
:1001D000FB7213463B81FB681B7A002B28D1FB7A0C
:1001E0005B005BB243F001035BB2DAB2FB689A7664
:1001F000FB685868FB6803F11A013B8901339BB225
:100200001A4602F013F9786100237B820BE07B8AA7
:100210005A1C7B8A79680B44F9680A44927E1A70EA
:100220007B8A01337B827A8A3B899A42EFD316E03C
:10023000FB68586807F10B010023012201F0C2FEA0
:1002400078617B69002B01D07B6909E0FB68586805
:100250003B89DAB20123796801F0EBFE78617B69B2
:1002600018461837BD4680BD80B586B000AFF8602F
:100270007B600B46FB7213463B8100237B820CE0C4
:100280007B8A7A681A447B8A01331178FA681344AE
:100290000A469A767B8A01337B827A8A3B899A4224
:1002A000EED3FB681B7A002B11D1FB7A5B00DAB22C
:1002B000FB689A76FB685868FB6803F11A013B8972
:1002C00001339BB21A4602F0B1F878610FE0FB6887
:1002D000FA7A9A76FB685868FB6803F11A013B8941
:1002E000DBB20133DAB2012301F06CFE78617B6985
:1002F00018461837BD4680BD84B080B586B000AFC3
:10030000786007F1240080E80E0097F83D30022B5A
:1003100002D96FF01503A9E000BF4FF49E710120D0
:100320001EF047FC38613B69002B02D16FF00B03D4
:100330009CE097F83C203B691A723B691B7A002BC2
:100340000CD13B69043307F124021146184601F031
:1003500081FF78617B69002B0CD083E03B6904331B
:1003600007F124021146184601F052FD78617B69BD
:10037000002B76D197F83D203B691A7007F10B03EB
:10038000012200213869FFF71DFF78617B69002B8E
:100390004BD1FB7AAD2B48D107F10B030122012190
:1003A0003869FFF70FFF78617B69002B3FD1FB7A3B
:1003B0001D2B3CD107F10B03012202213869FFF705
:1003C00001FF78617B69002B33D13B691B781A46AA
:1003D0002A4B9A5CFB7A9A422BD1294B0522502159
:1003E0003869FFF7EFFE78617B69002B23D14FF06E
:1003F000FF33FB60FB689B07FB60FB689B0FFB60A8
:10040000FB68DBB223F07E03DAB23B691A733B6907
:1004100060221A753B6901225A723B6901229A7562
:100420007B683A691A607B6920E000BF04E000BF86
:1004300002E000BF00E000BF3B691B7A002B05D142
:100440003B695B68184601F09BFF04E03B695B6811
:10045000184601F067FD38691EF0B9FB4FF0FF3315
:1004600004E000BF38691EF0B2FB7B6918461837FC
:10047000BD46BDE8804004B0704700BF7027031040
:100480000C0B002080B584B000AF78600B46FB7089
:10049000FB1C01222D217868FFF7E6FEF860FB685F
:1004A000002B02D1FA787B685A72FB681846103725
:1004B000BD4680BD80B586B000AF7860FF23FB7479
:1004C0005223FB7207F10B0301222F217868FFF7FB
:1004D000CBFE78617B69002B01D07B693CE007F1A2
:1004E00008031946786800F0C1F9786109E007F15E
:1004F00008031946786800F0B9F97861FB7C013B84
:10050000FB743B7A03F01003DBB2002B02D0FB7CC0
:10051000002BECD1FB7C002B02D07B69002B02D09E
:100520006FF00A0318E0012003F0B3F807F10C03A1
:10053000052250217868FFF745FE786107F10C032A
:1005400005220749184627F0A9F90346002B02D0D7
:100550006FF00A037B617B6918461837BD4680BD82
:100560000C0B002080B588B000AF78600B46FB70A4
:100570007B685B7AFB77FB7F062B1BD801A252F8C6
:1005800023F000BFA1050010B5050010A105001063
:10059000B5050010A1050010B5050010A10500105B
:1005A00001217868FFF76EFFB861BB69002B03D0AB
:1005B000BB6946E000BF00E000BF07F10F03012266
:1005C00028217868FFF7FEFDB861BB69002B01D0D8
:1005D000BB6936E04FF0FF337B617B691B077B61B2
:1005E0007B691B0F7B617B69DB43DAB2FB7B1340CA
:1005F000DBB2FB73FB784FF0FF323A613A691207C6
:100600003A613A69120F3A613A691340DAB2FB7BF8
:100610001343DBB2FB7307F10F0301222821786833
:10062000FFF722FEB861BB69002B01D0BB6908E06F
:100630007B68FA789A72FB7F19467868FFF722FF89
:10064000034618462037BD4680BD00BF80B588B040
:1006500000AFF860B9607A603B602B4B1B883B832E
:100660000023BB76284B1B88BB820023BB75264B1F
:100670001B883B820023BB7407F118030322082167
:10068000F868FFF79FFDF861FB69002B01D0FB695B
:1006900035E007F118031946F86800F07BFA0246C6
:1006A000BB681A6007F1140303220B21F868FFF7F7
:1006B00089FDF861FB69002B01D0FB691FE007F1A0
:1006C00014031946F86800F065FA02467B681A6060
:1006D00007F1100303220E21F868FFF773FDF8619C
:1006E000FB69002B01D0FB6909E007F110031946F3
:1006F000F86800F04FFA02463B681A60FB6918463A
:100700002037BD4680BD00BF7427031080B588B078
:1007100000AFF860B9607A603B6007F1100307F141
:10072000140207F11801F868FFF790FFF861FB6900
:10073000002B01D0FB692DE0BB691946F86800F079
:1007400039FABB680833154A1FF0A1F802460B4678
:10075000B968C1E900237B691946F86800F02AFAF4
:100760007B6808330D4A1FF092F802460B46796801
:10077000C1E900233B691946F86800F01BFA3B68A1
:100780000833064A1FF083F802460B463968C1E970
:100790000023FB6918462037BD4680BD00CA9A3B3E
:1007A00080B586B000AF7860396007F10C03022293
:1007B00006217868FFF706FD78617B69002B16D16A
:1007C0003B7B9AB24FF0FF333B613B691B073B61B8
:1007D0003B691B0F3B613B699BB213409BB21B0201
:1007E0009AB27B7B9BB213439AB23B681A807B69B7
:1007F00018461837BD4680BD80B586B000AF78601A
:10080000396007F10E0319467868FFF7C9FF3861B0
:100810003B69002B01D03B6922E07B681B78012BF0
:1008200002DC002B03DA08E0022B03D005E00E4BBC
:100830007B6105E00C4B7B6102E06FF015030FE07C
:10084000FB891946786800F0D1FA3B6808337A6969
:100850001FF01DF802460B463968C1E9002300234A
:1008600018461837BD4680BD00E1F50580B584B057
:1008700000AF7860396007F10B030122042178682A
:10088000FFF7A0FCF860FB68002B02D1FA7A3B6806
:100890001A70FB6818461037BD4680BD80B582B01F
:1008A00000AF786039603B68012205217868FFF766
:1008B00089FC034618460837BD4680BD90B587B011
:1008C00000AFF860B9607A603B60B968F868FFF71C
:1008D000E5FF78617B69002B01D07B6973E0BB6821
:1008E0001B78002B6ED0BB681B789BB21A46520057
:1008F00013449AB2FB681A331121F868FFF762FCBF
:1009000078617B69002B01D07B695CE000237B82EE
:100910004FE07B8A0233FA6813449B7E03F00103A5
:10092000002B43D07B8A0233FA6813449B7E03F08A
:100930000203002B3AD17B8A1833FA681344991CBE
:100940007B8A234AA2FB03235B089BB29B007A6845
:10095000D418F86800F01EF9034623607B8A03333D
:100960001833FA681344991C7B8A194AA2FB0323A3
:100970005B089BB29B003A68D418F86800F00AF94B
:10098000034623607B8A06331833FA681344991CA4
:100990007B8A0F4AA2FB03235B089BB29B00BA6AC7
:1009A000D418F86800F0F6F8034623607B8A093310
:1009B0007B827A8ABB681B7819460B465B000B4426
:1009C0009A42A6DB7B6918461C37BD4690BD00BF26
:1009D000398EE338B0B5E8B002AF07F5CC74A4F5B2
:1009E000C674206007F5CC70A0F5C870016007F5EB
:1009F000CC71A1F5CA710A6007F5CC72A2F5CC7270
:100A0000136007F1900407F5887207F5CC73A3F51E
:100A1000C87107F5CC73A3F5C67007F110030093F6
:100A2000234609680068FFF749FFC7F89001D7F827
:100A30009031002B02D0D7F89031A1E007F5CC73AC
:100A4000A3F5C8731B681B78002B00F09780002368
:100A500087F8973182E097F897319B0003F5CC73C4
:100A60003B4453F8882C07F5CC73A3F5C6731146A5
:100A7000186800F09FF897F897311B0107F5CC72C2
:100A8000A2F5CA721268134403F1080597F897316A
:100A90001B0107F5CC72A2F5CA721268D4182B4656
:100AA0003A4A1EF0F4FE02460B46C4E9002397F8CA
:100AB000972107F5CC73A3F5847353F8222007F52B
:100AC000CC73A3F5C6731146186800F073F897F855
:100AD00097311B0107F5CC72A2F5CC721268134452
:100AE00003F1080597F897311B0107F5CC72A2F5C1
:100AF000CC721268D4182B46244A1EF0C8FE024657
:100B00000B46C4E9002397F8972107F5CC73A3F5AA
:100B1000C47353F8222007F5CC73A3F5C6731146AE
:100B2000186800F047F897F897311B01D7F8A8210B
:100B3000134403F1080597F897311B01D7F8A82152
:100B4000D4182B46114A1EF0A2FE02460B46C4E9F9
:100B5000002397F89731013387F8973107F5CC7365
:100B6000A3F5C8731B681B78094AA2FB03235B0823
:100B7000DBB297F897219A42FFF46DAFD7F8903126
:100B8000184607F5CC77BD46B0BD00BF00CA9A3BFA
:100B9000ABAAAAAA80B584B000AF78603960386883
:100BA0001EF0C7FEF860FB681B0918461037BD46EB
:100BB00080BD00002DE9B00F99B000AF78653965B0
:100BC0003B6D03F40023002B0AD04FF0FF33BB65CD
:100BD000BB6D1B05BB65BA6D3B6D1343FB6501E047
:100BE0003B6DFB657B6D1B78002B07D0002BC0F2A3
:100BF000EB80013B012B00F2E78070E0FB6DDA1720
:100C0000BB63FA637B6D1B7B1A46774B9B5CDBB245
:100C100000223B647A64D7E90E010B46D7E91089BC
:100C2000424602FB03F2C7E910894B4680468946DB
:100C3000414601FB03F313444246396CA2FB0145D4
:100C40002B441D4622462B464FF000004FF000017A
:100C5000190141EA1271100102460B46111B39625B
:100C600063EB05037B624FF000024FF00003D7E90E
:100C7000088949460B01414643EA117341460A017E
:100C800011461A460B46B3EB040A134663EB050BF9
:100C90004FF000024FF000034FEA4B1343EADA63D0
:100CA0004FEA4A1292469B461AEB0403BB614BEB98
:100CB0000503FB614FF000024FF00003D7E9064542
:100CC00029468B00214643EA917321468A0021463A
:100CD0008918B964294643EB0101F9647AE0FB6D98
:100CE000DA173B637A637B6D1B7B1A463E4B9B5C3A
:100CF000DBB20022BB62FA62D7E90C452B46D7E98A
:100D00000AAB524602FB03F25B46214601FB03F3AA
:100D1000134422465146A2FB01894B449946424660
:100D20004B464FF000004FF00001590141EAD261FB
:100D3000500102460B46B2EB0801396163EB09032F
:100D40007B614FF000024FF00003D7E904452946CC
:100D5000CB00214643EA51732146CA0011461A4688
:100D60000B4613EB0803BB60134643EB0903FB6020
:100D70004FF000024FF00003D7E9024529460B026D
:100D8000214643EA116321460A0211461A460B46E0
:100D9000B3EB08033B60134663EB09037B604FF042
:100DA00000024FF00003D7E9004529468B00214699
:100DB00043EA917321468A002146511AB9642946B3
:100DC00063EB0103FB6405E04FF000034FF0000408
:100DD000C7E91234D7E91223104619466437BD46D5
:100DE000BDE8B00F704700BF6C2703102DE9B003BA
:100DF00083B000AF7860798079680978012902DCD6
:100E0000002903DA33E0022918D030E07988642021
:100E100000FB01F1A1F54E31B539C817884681466E
:100E2000184901FB09F04FF0FF3101FB08F10144C3
:100E30001448A8FB002319440B461CE07988642061
:100E400000FB01F1A1F54A31A1F2D131C8170C46DE
:100E500005460C4901FB05F04FF0FF3104FB01F1A1
:100E600001440848A4FB002319440B4603E04FF05B
:100E700000024FF00003104619460C37BD46BDE88E
:100E8000B00370472AF269F980B483B000AF78608C
:100E900039607B6842F6F822934202D96FF015035D
:100EA00008E07B685B03064AA2FB03235A0B3B68FE
:100EB0001A60002318460C37BD465DF8047B704766
:100EC0005172A6BE90B583B000AF03463A60FB7185
:100ED0000B46BB803B68FA791A703B685A1CBB888A
:100EE000114618461EF0F9FC3B68DC1C0023032267
:100EF000396804481DF0B3FE0346237000BF0C3769
:100F0000BD4690BD140B002080B586B000AFF860E0
:100F1000B9607A60BB6899B2FB6808331A46412011
:100F2000FFF7D0FFFB685868FB68083304221946B6
:100F300001F07CFA78617B69002B01D07B690CE0C1
:100F40007A6800210020FFF7BDFFFB685B68042280
:100F50007968184601F06AFA034618461837BD4604
:100F600080BD80B584B000AFF860B9601346FB80E7
:100F7000BB68D8B2FB6803F10802FB881946FFF78B
:100F8000A1FFFB685868FB6808330422194601F08A
:100F90004DFA034618461037BD4680BD80B586B071
:100FA00000AFF860B9607A60FB6808331A46B96828
:100FB000F868FFF7A9FF78617B69002B01D07B6996
:100FC0001BE0FB6803F10801002303220D481DF01C
:100FD00046FE0346FB74FB68DB7AFA7C9A4202D039
:100FE0006FF0150309E0FB68093318461EF08CFC0E
:100FF00003461A467B681A80002318461837BD46F8
:1010000080BD00BF140B002080B586B000AFF86033
:10101000B96011461A460B46FB801346BB8007F1A8
:1010200012031A46B968F868FFF7B8FF78617B6960
:10103000002B01D07B691CE0B7F90630DB431AB204
:101040007B8A1BB213401BB29BB27B82FB88BA889F
:10105000114618461EF094FB03469AB27B8A13434E
:101060009BB27B827B8A1A46B968F868FFF779FFE2
:10107000034618461837BD4680BD80B586B000AF20
:101080007860396007F10E031A4623217868FFF76C
:1010900085FF78617B69002B01D07B691BE04FF0F5
:1010A000FF333B613B691B063B613B691B0E3B61A8
:1010B0003B69FA89114618461EF074FB03469BB241
:1010C000FB81FB89DBB218461EF07FFB0346DAB2D8
:1010D0003B681A70002318461837BD4680BD80B59E
:1010E00084B000AF78604FF0FF33FB60FB681B04F7
:1010F000FB60FB681B0CFB60FB689BB21A462E2151
:101100007868FFF72EFF034618461037BD4680BDAE
:1011100080B586B000AF786041F23423FB82FB8A51
:101120001A4645217868FFF71CFF38613B69002BA0
:1011300001D03B6914E007F10E031A464521786897
:10114000FFF72CFF38613B69002B01D03B6907E0BA
:10115000FB89FA8A9A4202D06FF0150300E000235F
:1011600018461837BD4680BD80B584B000AF7860A2
:101170007B685B69002B1AD07B685B69002118468D
:1011800000F0FAFDF860FB68002B01D0FB682AE054
:10119000322002F073FA7B685B690121184600F087
:1011A00011FEF860FB68002B19D0FB681BE041F2D0
:1011B000FA5244217868FFF7D4FEF860FB68002BF0
:1011C00001D0FB680FE04AF6517244217868FFF7BE
:1011D000C8FEF860FB68002B01D0FB6803E001202B
:1011E00002F057FA002318461037BD4680BD80B57F
:1011F00088B000AFF860B9601346FB710022B9688F
:10120000F86800F057FCF861FB69002B01D0FB691E
:1012100049E0BB68591C4FF0FF33BB61BB691B073A
:10122000BB61BB691B0FBB61BB699AB20023F86845
:10123000FFF7EAFEF861FB69002B01D0FB6932E0A1
:10124000822002F01BFABB68591C4FF0FF337B6110
:101250007B691B077B617B691B0F7B617B699AB292
:10126000FB799BB2F868FFF7CFFEF861FB69002BB2
:1012700001D0FB6917E0BB68591D01230422F868FF
:10128000FFF7C2FEF861FB69002B01D0FB690AE0A1
:10129000962002F0F3F9FA68BB6804335B0013444C
:1012A000FA795A71002318462037BD4680BD80B5B3
:1012B00084B000AFF860B9607A60BB6826337A68A2
:1012C0001946F868FFF76AFE034618461037BD4610
:1012D00080BD80B586B000AFF860B9601346FB7181
:1012E0000122BB6802FA03F39AB2FB799BB2232175
:1012F000F868FFF789FE78617B69002B01D07B6974
:1013000007E0FA68BB6804335B001344FA791A718A
:10131000002318461837BD4680BD80B584B000AFA5
:10132000F860B9601346FB710122BB6802FA03F34F
:101330009BB21B019AB2FB799BB22321F868FFF79D
:1013400063FE034618461037BD4680BD80B588B0A1
:1013500000AFF860B9607A60BB68053307F1160228
:101360001946F868FFF71AFEF861FB69002B01D0F7
:10137000FB6913E04FF0FF33BB61BB699B07BB61A7
:10138000BB69DB0EBB61BB69FA8A114618461EF0C9
:1013900009FA0346DAB27B681A7000231846203730
:1013A000BD4680BD80B584B000AF7860396007F17C
:1013B0000A031A4623217868FFF7F0FDF860FB68FE
:1013C000002B01D0FB6813E07B8919464FF4806045
:1013D0001EF0E8F903469BB27B817B89002B03D08A
:1013E0003B6800221A7002E03B6801221A70002359
:1013F00018461037BD4680BD80B586B000AFF86096
:10140000B9601346FB71BB68591D4FF0FF337B6118
:101410007B699B077B617B69DB0E7B617B699AB291
:10142000FB799BB2F868FFF7EFFD034618461837C3
:10143000BD4680BD80B584B000AF78600B46FB70C0
:101440004FF0FF33FB60FB689B07FB60FB689B0D65
:10145000FB60FB689AB2FB789BB223217868FFF7A8
:10146000D3FDB860BB68002B01D0BB6803E06420EB
:1014700002F004F9002318461037BD4680BD000075
:1014800080B588B000AFF860B9607A60FB70FB7817
:10149000002B06D00122B968F868FFF73EFFF8611B
:1014A00005E00122B968F868FFF713FFF861FB69EE
:1014B000002B01D0FB6986E007F117031946F86895
:1014C000FFF7DBFDF861FB69002B01D0FB697AE0D7
:1014D0000121F868FFF7AEFFF861FB69002B01D02E
:1014E000FB6970E0FB78002B07D007F11603194663
:1014F000F868FFF757FFF86107E007F116031A468F
:10150000B968F868FFF722FFF861FB69002B01D08A
:10151000FB6958E0FB681B78002B06D1BB7D1A469F
:101520002B4B53F82230BB6105E0BB7D1A46294B9B
:1015300053F82230BB61BB69B3F57A7F08D2FB7DDB
:101540001A46BB6902FB03F3184602F097F80BE05A
:10155000FB7D1A46BB6902FB03F31F4AA2FB032370
:101560009B09184602F095F8FB78002B06D07A68A4
:10157000B968F86800F0BDFAF86105E07A68B96802
:10158000F868FFF794FEF861FB69002B01D0FB6956
:1015900019E00321F868FFF74DFFF861FB69002BA4
:1015A00001D0FB690FE0FB78002B06D00022B96860
:1015B000F868FFF7B2FE034605E00022B968F86854
:1015C000FFF787FE034618462037BD4680BD00BFA3
:1015D0007827031088270310D34D62102DE9B04FF0
:1015E000B0B000AFC7F8B400C7F8B010C7F8AC206F
:1015F00007F1BA020023D7F8B010D7F8B400FFF70C
:101600003FFFC7F8BC00D7F8BC30002B02D0D7F89A
:10161000BC3042E2D7F8B420D7F8B03004335B00D6
:1016200013445B790A2B00F2348201A252F823F0B2
:101630005D1600103F170010A3170010A31700102D
:101640009D1800109D1800106D190010D31900107E
:10165000D31900107D1800108D180010B7F8BA309B
:101660009BB20022C7F89030C7F89420D7E92445F0
:1016700022462B464FF000004FF00001190141EACD
:101680001271100102460B46214651183964294651
:101690004B417B644FF000024FF00003D7E9108903
:1016A00049464B01414643EAD16341464A0110464F
:1016B0001946034622469B18BB630B462A4642EB5B
:1016C0000303FB634FF000024FF00003D7E90E89DC
:1016D0004946CB00414643EA51734146CA00414660
:1016E000511A3963494663EB01037B634FF00002F3
:1016F0004FF00003D7E90C8949468B00414643EA85
:10170000917341468A0010461946034622469B1AA9
:10171000C7F888300B462A4663EB0203C7F88C30C3
:10172000D7F8AC300833DF4AD7E922011EF092F82F
:1017300002460B46D7F8AC10C1E90023ACE1B7F87C
:10174000BA30A3F5FF437F3BDA17C7F88030C7F8FC
:101750008420D54BD7E920452A4603FB02F200231B
:10176000214601FB03F31344CF4A2146A1FB021299
:10177000C7F8A4200A46C7F8A020D7F8A42013442D
:10178000C7F8A430D7E92801D7F8AC300833C74AE6
:101790001EF07DF802460B46D7F8AC10C1E90023D5
:1017A0007AE1B7F8BA309BB20022BB67FA67D7E993
:1017B0001E4522462B464FF000004FF00001190154
:1017C00041EA1271100102460B4621465118B962D6
:1017D00029464B41FB624FF000024FF00003D7E96E
:1017E0000A8949464B01414643EAD16341464A01D1
:1017F00010461946034622469B183B620B462A4672
:1018000042EB03037B624FF000024FF00003D7E985
:1018100008894946CB00414643EA51734146CA0014
:101820004146511AB961494663EB0103FB614FF030
:1018300000024FF00003D7E9068949468B00414674
:1018400043EA917341468A001046194603462246F0
:101850009B1A3B670B462A4663EB02037B67D7F86C
:10186000AC3008338F4AD7E91C011DF0F3FF024664
:101870000B46D7F8AC10C1E900230DE1D7F8B4301E
:101880001B78012B02D16FF0850306E1D7F8B43045
:101890001B78012B02D16FF08503FEE0B7F8BA3058
:1018A0009BB20022BB66FA66D7E91A4522462B4650
:1018B0004FF000004FF00001D90041EA5271D00012
:1018C00002460B4621465118396129464B417B613E
:1018D0004FF000024FF00003D7E9048949464B015D
:1018E000414643EAD16341464A0110461946034640
:1018F00022469B18BB600B462A4642EB0303FB6063
:101900004FF000024FF00003D7E9028949464B012E
:10191000414643EAD16341464A01414611EB020A7E
:10192000494641EB030B4FF000024FF000034FEA32
:101930008B0343EA9A734FEA8A0292469B462346F8
:10194000BAEB03033B662B466BEB03037B66D7F8CE
:10195000AC300833554AD7E918011DF07BFF024629
:101960000B46D7F8AC10C1E9002395E0B7F8BA30C0
:101970009BB20022BB65FA654D4BD7E916452A4656
:1019800003FB02F20023214601FB03F31344484A00
:101990002146A1FB0212C7F89C200A46C7F89820EE
:1019A000D7F89C201344C7F89C30B7F8BA30C3F579
:1019B0007F43FF331A46D7F8AC300833D7E9260106
:1019C0001DF048FF02460B46D7F8AC10C1E90023D2
:1019D00062E0B7F8BA309BB200223B657A65D7E97E
:1019E00014AB52465B464FF000004FF00001190166
:1019F00041EA1271100102460B46514612EB0108F2
:101A0000594643EB01094FF000024FF000034FEA43
:101A1000491343EAD8634FEA481290469946534621
:101A200018EB03033B605B4649EB03037B604FF01D
:101A300000024FF00003D7E900894946CB00414638
:101A400043EA51734146CA004146541A494663EB82
:101A500001054FF000024FF00003AB0043EA94731E
:101A6000A20014461D465346E31ABB645B4665EB71
:101A70000303FB64D7F8AC3008330A4AD7E91201F4
:101A80001DF0E8FE02460B46D7F8AC10C1E9002372
:101A900002E06FF0150300E000231846C037BD4692
:101AA000BDE8B08FA0860100062A010000E1F5051F
:101AB000200B200080B586B000AFF860B9601346F7
:101AC000FB80BB681633FA881946F868FFF749FAB5
:101AD00078617B69002B01D07B6906E049F23A52BC
:101AE0004421F868FFF73DFA034618461837BD460B
:101AF00080BD80B586B000AFF860B9607A60BB6821
:101B00002A337A681946F868FFF748FA78617B69E2
:101B1000002B01D07B6914E04FF0FF333B613B6940
:101B20001B043B613B691B0C3B613A697B681B886A
:101B3000194610461DF036FE03469AB27B681A809D
:101B40007B6918461837BD4680BD000080B584B05B
:101B500000AF786039603B68002B02D16FF015034D
:101B60005CE0182101201DF024F8B860BB68002B50
:101B700002D16FF00B0351E0BB681A1D3B680433C0
:101B80001946104600F066FBF860FB68002B40D158
:101B9000072124481DF026F8BB6803F114023B68B6
:101BA000DB691946104600F06CF8F860FB68002B02
:101BB00028D1B868FFF7D8FAF860FB68002B16D177
:101BC000B868FFF78CFAF860FB68002B11D1B86891
:101BD000FFF79EFAF860FB68002B0CD13B681A787F
:101BE000BB681A707B68BA681A60002316E000BFF1
:101BF00002E000BF00E000BFBB685B69184600F070
:101C000077F800E000BFBB685B68184600F0B8FBDF
:101C100000E000BFB8681CF0DAFFFB681846103718
:101C2000BD4680BD140B002080B584B000AF786045
:101C300039603B68002B03D03B68DB68002B02D186
:101C40006FF0150319E03B68DB681B68002B02D1BD
:101C50006FF0570311E03B68DB681B6839687868F0
:101C60009847F860FB68002B01D0FB6805E07B68B3
:101C70001B683A68D268DA60002318461037BD4600
:101C800080BD80B584B000AF786039603B68002BC0
:101C900004D03B685B68B3F1FF3F04D17B6800224E
:101CA0001A60002320E03B68DB68002B02D16FF054
:101CB000150319E03B68DB685B68002B02D16FF00D
:101CC000570311E03B68DB685B68396878689847C0
:101CD000F860FB68002B01D0FB6805E07B681B689F
:101CE0003A68D268DA60002318461037BD4680BDD6
:101CF00080B582B000AF78607B68002B15D07B6820
:101D0000DB68002B02D16FF015030FE07B68DB6806
:101D10009B68002B02D16FF0570307E07B68DB68FC
:101D20009B6878689847034600E000231846083708
:101D3000BD4680BD80B582B000AF78607B68002B67
:101D400015D07B68DB68002B02D16FF015030FE024
:101D50007B68DB68DB68002B02D16FF0570307E07C
:101D60007B68DB68DB6878689847034600E00023FF
:101D700018460837BD4680BD80B582B000AF786098
:101D80000B46FB707B68002B17D07B68DB68002B51
:101D900002D16FF0150311E07B68DB681B69002B33
:101DA00002D16FF0570309E07B68DB681B69FA78A2
:101DB000114678689847034600E000231846083724
:101DC000BD4680BD80B582B000AF78600B46FB7029
:101DD0007B68002B17D07B68DB68002B02D16FF08B
:101DE000150311E07B68DB689B69002B02D16FF063
:101DF000570309E07B68DB689B69FA7811467868CD
:101E00009847034600E0002318460837BD4680BDCA
:101E100080B584B000AF786039603B68002B03D098
:101E20003B68DB68002B02D16FF015033FE03B6895
:101E3000DB681B68002B02D16FF0570337E03B686B
:101E40001B68042B02D96FF0150330E03B681B6858
:101E5000194A52F82330002B08D1386800F02EF8C8
:101E6000F860FB68002B01D0FB6820E03B68DB6872
:101E70001B68396878689847F860FB68002B01D0C8
:101E8000FB6814E03B681A687B681B680A4951F8D4
:101E900022201A607B681B681B681A790132D2B253
:101EA0001A717B681B683A68D2681A610023184669
:101EB0001037BD4680BD00BF140C002080B584B033
:101EC00000AF7860182101201CF073FEF860FB68F9
:101ED000002B02D16FF00B031DE0FB6818461DF0CC
:101EE00009FCFB6800221A717B681A68FB689A601B
:101EF0007B685A68FB68DA607B68DA68FB681A619D
:101F00007B681A69FB685A617B681B680449FA6838
:101F100041F82320002318461037BD4680BD00BF7E
:101F2000140C002080B582B000AF78607B681B681D
:101F30009B68184600F01CF87B68002B03D07B6878
:101F40001B69002B02D16FF015030DE07B681B6944
:101F5000DB68002B02D16FF0570305E07B681B693B
:101F6000DB6878689847034618460837BD4680BD49
:101F700080B584B000AF7860114A7B6852F8233096
:101F8000FB60FB681B79002B05D0FB681B79013BCC
:101F9000DAB2FB681A71FB681B79002B0CD1FB6865
:101FA0001B6818461DF0C4FBFB68002B04D0F868C2
:101FB0001CF00DFE0023FB6000BF1037BD4680BD46
:101FC000140C002090B587B000AFF860B9601146DE
:101FD0001A460B46FB711346BB71FB68002B03D0FE
:101FE000FB681B69002B02D16FF015031DE0FB6835
:101FF0001B695B68002B02D16FF0570315E0FB688B
:102000001B681B6818461DF07FFBFB681B695C683A
:10201000BB79FA79B968F868A0477861FB681B68F2
:102020001B6818461DF07AFB7B6918461C37BD46B5
:1020300090BD90B587B000AFF860B96011461A4600
:102040000B46FB711346BB71FB68002B03D0FB688A
:102050001B69002B02D16FF015031DE0FB681B69A3
:102060009B68002B02D16FF0570315E0FB681B68DB
:102070001B6818461DF048FBFB681B699C68BB7910
:10208000FA79B968F868A0477861FB681B681B6833
:1020900018461DF043FB7B6918461C37BD4690BDB2
:1020A00080B584B000AF786039603B68002B03D006
:1020B0003B685B68002B02D16FF0150319E03B68A9
:1020C0005B681B68002B02D16FF0570311E03B687F
:1020D0005B681B68396878689847F860FB68002B74
:1020E00001D0FB6805E07B681B683A6852685A605B
:1020F000002318461037BD4680BD80B582B000AFC2
:1021000078607B68002B03D07B685B68002B02D172
:102110006FF015030DE07B685B685B6A002B02D1F2
:102120006FF0570305E07B685B685B6A78689847E7
:10213000034618460837BD4680BD80B584B000AF61
:10214000F860B9607A60FB68002B03D0FB685B68BD
:10215000002B02D16FF015030FE0FB685B685B6832
:10216000002B02D16FF0570307E0FB685B685B68E8
:102170007A68B968F8689847034618461037BD462C
:1021800080BD80B584B000AFF860B9607A60FB684C
:10219000002B03D0FB685B68002B02D16FF01503A6
:1021A0000FE0FB685B689B68002B02D16FF0570360
:1021B00007E0FB685B689B687A68B968F8689847CD
:1021C000034618461037BD4680BD80B582B000AFCB
:1021D000786039607B68002B03D07B685B68002BDC
:1021E00002D16FF015030EE07B685B689B69002BE2
:1021F00002D16FF0570306E07B685B689B69396822
:1022000078689847034618460837BD4680BD80B5B4
:1022100082B000AF786039607B68002B03D07B68A8
:102220005B68002B02D16FF015030EE07B685B68E2
:10223000DB69002B02D16FF0570306E07B685B6817
:10224000DB69396878689847034618460837BD4601
:1022500080BD000080B584B000AF786039603B6815
:10226000002B03D03B68DB68002B02D16FF0150315
:1022700044E03B68DB681B68002B02D16FF057031A
:102280003CE03B681B68082B02D96FF0150335E072
:102290003B681B681B4A52F82330002B08D1386872
:1022A00000F032F8F860FB68002B01D0FB6825E0F5
:1022B0003B68DB681B68396878689847F860FB689A
:1022C000002B01D0FB6819E03B681A687B681B682B
:1022D0000C4951F822201A607B681B681B681A7928
:1022E0000132D2B21A717B681B683A68D2681A61EF
:1022F0007B681B683A6852699A6100231846103758
:10230000BD4680BD280C002080B584B000AF786049
:102310001C2101201CF04DFCF860FB68002B02D151
:102320006FF00B0325E0FB6818461DF0E3F9FB682E
:1023300000221A717B681A68FB689A607B685A6889
:10234000FB68DA607B685A7AFB681A747B689A7A51
:10235000FB685A747B68DA68FB685A617B681A69A3
:10236000FB689A617B681B680449FA6841F823207E
:10237000002318461037BD4680BD00BF280C002042
:1023800080B582B000AF78607B681B689B68184698
:1023900000F01CF87B68002B03D07B681B69002BC6
:1023A00002D16FF015030DE07B681B69DB68002B21
:1023B00002D16FF0570305E07B681B69DB68786822
:1023C0009847034618460837BD4680BD80B584B09F
:1023D00000AF7860144A7B6852F82330FB60FB68DA
:1023E0001B79002B05D0FB681B79013BDAB2FB6837
:1023F0001A71FB681B79002B11D1FB681B6818460A
:102400001DF096F9FB68002B09D0F8681CF0DFFB83
:102410000023FB60044A7B68002142F8231000BFC0
:102420001037BD4680BD00BF280C002080B586B0A7
:1024300000AFF860B9601346FB80FB68002B03D047
:10244000FB681B69002B02D16FF015031CE0FB68D1
:102450001B695B68002B02D16FF0570314E0FB6827
:102460001B681B6818461DF04FF9FB681B695B6809
:10247000FA88B968F86898477861FB681B681B6838
:1024800018461DF04BF97B6918461837BD4680BDCC
:1024900080B586B000AFF860B9607A6000237B61D8
:1024A000FB68002B03D0FB681B69002B02D16FF087
:1024B000150364E0FB681B699B68002B08D0FB6870
:1024C0001B699B687A68B968F8689847034656E0C4
:1024D000FB681B681B6818461DF016F900233B615A
:1024E00040E03A691346DB009B1A9B001A46BB6822
:1024F000134459683A691346DB009B1A9B001A463D
:10250000BB6813441B6899420AD13A691346DB0041
:102510009B1A9B001A46BB6813441B68002B03D10F
:102520006FF015037B6123E03A691346DB009B1AC9
:102530009B001A46BB68134459683A691346DB008E
:102540009B1A9B001A46BB6813449B689BB21A46B1
:10255000F868FFF76BFF78617B69002B07DB3B694D
:1025600001333B613A697B689A42BAD300E000BF0D
:10257000FB681B681B6818461DF0D0F87B6918467D
:102580001837BD4680BD000080B584B000AF7860CC
:1025900039603B68002B03D03B68DB68002B02D11D
:1025A0006FF015032AE03B68DB681B68002B02D143
:1025B0006FF0570322E03B68DB681B683968786876
:1025C0009847F860FB68002B01D0FB6816E07B6839
:1025D0001B683A68D2681A613B681B889B00094AED
:1025E000134418461DF086F83B681B8819467B6823
:1025F0001B68044A52F821201A600023184610373D
:10260000BD4680BD4C0C002080B582B000AF786024
:102610007B68002B03D07B681B69002B02D16FF015
:10262000150319E07B681B691B6A002B02D16FF050
:10263000570311E07B681B6818461DF079F87B682A
:102640009B881946064B002243F821207B681B69B2
:102650001B6A78689847034618460837BD4680BD10
:102660004C0C002080B582B000AF78607B68002BF6
:1026700003D07B681B69002B02D16FF015030DE0BE
:102680007B681B695B68002B02D16FF0570305E084
:102690007B681B695B68786898470346184608376B
:1026A000BD4680BD80B582B000AF786039607B6880
:1026B000002B06D07B681B69002B02D03B68002BE7
:1026C00002D16FF015030EE07B681B69DB68002BFD
:1026D00002D16FF0570306E07B681B69DB6839683D
:1026E00078689847034618460837BD4680BD000005
:1026F00080B584B000AF786039603B68002B07D0AC
:102700003B685B69002B03D03B681B780A2B02D91E
:102710006FF015032AE03B685B691B68002B02D150
:102720006FF0570322E03B685B691B683968786883
:102730009847F860FB68002B01D0FB6816E07B68C7
:102740001B683A6852695A613B681B789B00094ACA
:10275000134418461CF0CEFF3B681B7819467B6873
:102760001B68044A52F821201A60002318461037CB
:10277000BD4680BD600C002080B586B000AFF8601B
:10278000B9607A60FB68002B06D0FB685B69002BA0
:1027900002D0BB68002B02D16FF015031AE0FB6872
:1027A0005B695B68002B02D16FF0570312E0FB6896
:1027B0001B6818461CF0A8FFFB685B695B687A68B9
:1027C000B968F86898477861FB681B6818461CF080
:1027D000A5FF7B6918461837BD4680BD80B586B019
:1027E00000AFF860B9607A60FB68002B06D0FB6828
:1027F0005B69002B02D0BB68002B02D16FF0150380
:102800001AE0FB685B699B68002B02D16FF05703ED
:1028100012E0FB681B6818461CF076FFFB685B69DA
:102820009B687A68B968F86898477861FB681B68A4
:1028300018461CF073FF7B6918461837BD4680BDEB
:1028400090B58FB000AFF8600B467A607B810223B1
:102850007B6307F1140300221A605A609A60DA6001
:102860001A615A619A61FB680E337B610623FB6132
:10287000012387F820304FF0FF333B633B6BDB04D1
:102880003B633B6BDB0C3B633B6B9AB27B89134036
:102890007B817B8943F07F4343F47F0343F42043F0
:1028A0007B81FB6803F10E027B89114618461DF0FF
:1028B00014F8FB6893F80C36002B11D0FB6803F179
:1028C0000E01002302221E481CF0C9F903461A46D5
:1028D000FB681A747B6B01337B63FB690133FB611B
:1028E0007B6B0833FA6813440633194678681DF089
:1028F00038F8FB6893F80C36002B13D07B6B083349
:10290000FA681344991D7B6B1C1D002304220C489C
:102910001CF0A5F903461A46FB6823449A73FB6929
:102920000133FB61FB685B6807F114010122184663
:10293000FFF7AEFD034618463C37BD4690BD00BFCD
:102940008C0C002080B58EB000AFF8600B467A602A
:102950007B8103237B6307F1100300221A605A6016
:102960009A60DA601A615A619A61FB680E333B61C2
:10297000FB680E337B610423BB6101233B77FB685B
:1029800003F10E027B89114618461CF0A6FFFB6876
:102990009B7B63F07F03DAB2FB689A73FB680022CB
:1029A0001A74FB6893F80C36002B14D0BB69013302
:1029B000BB61FB6803F10E010023022228481CF0D2
:1029C0004EF903461A46FB681A74FB6800225A74D3
:1029D0007B6B01337B63BA697B6B1344BB61FB6820
:1029E0005B6807F1100101221846FFF751FD3863BB
:1029F0003B6B002B01D03B6B2DE0FB6893F80C3652
:102A0000002B1CD07B6B0833FA681344991D0023FC
:102A1000042213481CF023F9034687F82F307B6B00
:102A20000433FA6813449B7B87F82E3097F82F20E5
:102A300097F82E309A4202D06FF015030BE07B6BB3
:102A40000833FA681344063318461CF0ABFF0246FD
:102A50007B681A60002318463837BD4680BD00BF2A
:102A60008C0C002080B586B000AFF8607A603B60C7
:102A70000B467B8107F110027B891946F868FFF746
:102A800061FF78617B69002B01D07B6911E07B6875
:102A9000DA433B6913403B617A683B681A403B6903
:102AA00013433B613A697B891946F868FFF7C8FE12
:102AB000034618461837BD4680BD90B593B000AFA9
:102AC000F860B9607A603B6000237B644FF0FF33AD
:102AD0003B643B6C9B073B643B6C9B083B643B6CDF
:102AE000002118461CF04CFE04464FF0FF33FB63F8
:102AF000FB6B9B07FB63FB6B1B09FB63FB6B002101
:102B000018461CF03DFE03461C434FF0FF33BB63E9
:102B1000BB6BDB06BB63BB6B9B09BB63BB6BB96861
:102B200018461CF02DFE03461C434FF0FF337B6319
:102B30007B6BDB067B637B6BDB0A7B637B6B796880
:102B400018461CF01DFE03461C434FF0FF333B6349
:102B50003B6B1B043B633B6B1B0C3B633B6B396860
:102B600018461CF00DFE03462343FB62FA6A20213F
:102B7000F868FFF765FEB862BB6A002B01D0BB6A3C
:102B80008EE04FF0FF337B627B6A9B077B627B6A40
:102B90009B087B627B6A002118461CF0F1FD04460D
:102BA0004FF0FF333B623B6A9B073B623B6A1B096A
:102BB0003B623B6A012118461CF0E2FD03461C43C0
:102BC0004FF0FF33FB61FB69DB06FB61FB699B098F
:102BD000FB61FB69B96818461CF0D2FD03461C4333
:102BE0004FF0FF33BB61BB69DB06BB61BB69DB0A2E
:102BF000BB61BB69796818461CF0C2FD03461C43E3
:102C00004FF0FF337B617B691B047B617B691B0C8D
:102C10007B617B69B7F85820114618461CF0B0FD5F
:102C200003462343FB62FA6A2121F868FFF708FE96
:102C3000B862BB6A002B15D0BB6A31E007F1100304
:102C40001A462021F868FFF77DFEB862BB6A002BA8
:102C500001D0BB6A24E03B6919464FF000401CF0EC
:102C6000A1FD78647B6C002BE8D000237B6413E02B
:102C700007F110031A462121F868FFF763FEB862D6
:102C8000BB6A002B01D0BB6A0AE03B6919464FF0D2
:102C900000401CF087FD78647B6C002BE8D000239B
:102CA00018464C37BD4690BD90B593B000AFF86064
:102CB000B9607A607B8000237B644FF0FF333B6414
:102CC0003B6C9B073B643B6C9B083B643B6C00216B
:102CD00018461CF055FD04464FF0FF33FB63FB6BB9
:102CE0009B07FB63FB6B1B09FB63FB6B0021184617
:102CF0001CF046FD03461C434FF0FF33BB63BB6B28
:102D0000DB06BB63BB6B9B09BB63BB6BB968184637
:102D10001CF036FD03461C434FF0FF337B637B6B97
:102D2000DB067B637B6BDB0A7B637B6B7968184616
:102D30001CF026FD03461C434FF0FF333B633B6B07
:102D40001B043B633B6B1B0C3B633B6B7A8811465C
:102D500018461CF015FD03462343FB62FA6A202146
:102D6000F868FFF76DFDB862BB6A002B15D0BB6A2F
:102D70008FE007F110031A462021F868FFF7E2FD03
:102D8000B862BB6A002B01D0BB6A82E03B6919467E
:102D90004FF000401CF006FD78647B6C002BE8D0FF
:102DA0004FF0FF337B627B6A9B077B627B6A9B08E9
:102DB0007B627B6A002118461CF0E2FC04464FF05F
:102DC000FF333B623B6A9B073B623B6A1B093B62EA
:102DD0003B6A032118461CF0D3FC03461C434FF00A
:102DE000FF33FB61FB69DB06FB61FB69DB0AFB610F
:102DF000FB69796818461CF0C3FC03461C434FF07E
:102E0000FF33BB61BB69DB06BB61BB699B09BB616F
:102E1000BB69B96818461CF0B3FC03462343FB6248
:102E2000FA6A2121F868FFF70BFDB862BB6A002B34
:102E300001D0BB6A2DE000237B6413E007F110038F
:102E40001A462121F868FFF77DFDB862BB6A002BA6
:102E500001D0BB6A1DE03B6919464FF000401CF0F1
:102E6000A1FC78647B6C002BE8D04FF0FF337B61D2
:102E70007B691B047B617B691B0C7B617B693A6905
:102E8000114618461CF08EFC03469AB2BB6D1A80A0
:102E9000002318464C37BD4690BD80B588B000AFC2
:102EA0007860396038681CF02FFD0346FB61FB69D0
:102EB00043F0804343F48033FB617B681B78012B34
:102EC00003D1FB6943F00043FB610023BB612DE0AC
:102ED000BB6928339BB25B009BB207F10C02194619
:102EE0007868FFF72FFD78617B69002B01D07B6943
:102EF00043E0FB68002B15D1BB699BB25B009BB222
:102F000051339BB207F10C0219467868FFF71AFD9E
:102F100078617B69002B01D07B692EE0FB68002B78
:102F200008D000E000BFBB690133BB61BB690F2B58
:102F3000CEDD00E000BFBB6928339BB25B009BB2D3
:102F4000FA6919467868FFF77BFC78617B69002B8A
:102F500001D07B6911E03B68023318461CF022FD6A
:102F60003861BB699BB25B009BB251339BB23A693B
:102F700019467868FFF764FC034618462037BD46BB
:102F800080BD000080B592B000AFF860B9607A6093
:102F900002237B6400233B6407F1100300221A60C4
:102FA0005A609A60DA601A615A619A61FB680E335E
:102FB0003B6101233B77FB681B784D4ADB001344E0
:102FC0005B68BA689A4202D36FF015038BE07B68A6
:102FD0001B6804333F2B04D87B681B68C3F13C0398
:102FE0003B647B681A683B6C13440233FB63FB6BE6
:102FF000033323F00303BB6307F12C031A4632218A
:10300000F868FFF79FFC78637B6B002B01D07B6B2C
:1030100069E0FB6A023B5B00FA6B9A4202D96FF0EF
:103020000A0360E0FA6B3021F868FFF709FC786367
:103030007B6B002B01D07B6B55E0FB680E33194690
:1030400031201CF04AFCFB689B7B63F05F03DAB223
:10305000FB689A73FB6893F80C36002B0ED0FB6864
:1030600003F10E010023022222481BF0F8FD034663
:103070001A46FB681A747B6C01337B64BB6898B298
:103080007B6C0833FA681344063319461CF025FCA0
:10309000BA6B7B6C1344BB617B6C02333B633B6B51
:1030A0000833FA681344981D7B6804330E221946CE
:1030B00023F0B8FD3B6B0E333B633B6B0833FA6880
:1030C0001344981D7B6859697B681B680E3B1A4640
:1030D00023F0A8FDFB685B6807F110010122184688
:1030E000FFF7D6F9034618464837BD4680BD00BFF6
:1030F000000000208C0C002080B592B000AFF8607A
:10310000B9607A6003237B6407F1100300221A6020
:103110005A609A60DA601A615A619A61FB680E33EC
:103120003B61FB680E337B6101233B77FB681B78B7
:10313000514ADB0013445B68BA689A4202D36FF0CD
:10314000150394E0BB68002B04D19123FB6390230B
:103150003B6403E0C123FB63C0233B643B6C9BB235
:1031600007F12C021946F868FFF7ECFBB863BB6B5C
:10317000002B01D0BB6B7AE0FB6A052B01D8002342
:1031800075E0FB680E3340F2FA520021184623F036
:103190005FFEFB6B9AB2FB680E33194610461CF0BB
:1031A0009CFBFB689B7B63F07F03DAB2FB689A733E
:1031B000FB6800221A74FB6893F80C36002B11D0C0
:1031C000FB6803F10E01002302222C481BF047FD8F
:1031D00003461A46FB681A74FB6800225A747B6C1B
:1031E00001337B64BB6898B27B6C0833FA68134484
:1031F000063319461CF071FBFB6A033323F003030B
:103200007B637A6B7B6C1344BB617B6C02337B64A6
:10321000FB685B6807F1100101221846FFF738F9D7
:10322000B863BB6B002B01D0BB6B20E0FB6A103B8B
:103230003B637B68181D7B6C0833FA6813440633C4
:103240000E22194623F0EEFC7B6C0E337B647B6808
:1032500058697B6C0833FA68134406333A6B194695
:1032600023F0E0FCFB6A9A1E7B681A600023184674
:103270004837BD4680BD00BF000000208C0C0020F8
:1032800080B584B000AF786007F108031A460821C2
:103290007868FFF757FBF860FB68002B01D0FB68EC
:1032A00015E0BB68194640201CF07CFA0346BB6061
:1032B000BB68002B02D16FF00F0308E04FF400430E
:1032C0004FF4004204217868FFF7CCFB0346184610
:1032D0001037BD4680BD80B582B000AF7860012256
:1032E00003217868FFF7ACFA034618460837BD4655
:1032F00080BD000080B586B000AFF860B9601346AD
:10330000FB71FB681B78114ADB0013445B68BA68E9
:103310009A4202D36FF0150314E0BB68002B02D170
:1033200004237B6102E04FF480537B61FB79002B27
:1033300001D07B6900E000237A690621F868FFF775
:1033400091FB034618461837BD4680BD000000209B
:1033500080B58AB002AF78607B681B782B4ADB00AF
:1033600013445B68BB610023FB6146E0FB69591CA9
:1033700007F10E030093002300227868FFF794FC06
:1033800078617B69002B01D07B693BE0FB891946A2
:103390004FF400601CF006FA38613B69002B29D01D
:1033A00023E0FB8923F400639BB2FB81FB69591C7A
:1033B000FB890093002300227868FFF77EFB786189
:1033C0007B69002B01D07B691CE0FB69591C07F16C
:1033D0000E030093002300227868FFF765FC7861F4
:1033E0007B69002B01D07B690CE0FB8903F400634F
:1033F000002BD6D1FB690133FB61FA69BB699A42A4
:10340000B4D3002318462037BD4680BD00000020FD
:1034100080B584B000AF7860202320220621786830
:10342000FFF720FBB860BB68002B01D0BB681EE033
:103430004FF48363FB607B681B78012B03D1FB682F
:1034400043F40033FB60FB68DB431A460D217868C8
:10345000FFF7F6F9B860BB68002B01D0BB6806E047
:103460007B68083319467868FFF717FD034618464E
:103470001037BD4680BD000080B584B000AF7860D5
:1034800039603B683033002B02D16FF01503AEE09A
:103490004FF4C261012023F061F80346BB60BB68B2
:1034A000002B02D16FF00B03A1E0BB6803F5C162F2
:1034B0003B681C3319461046FEF7E3FBF860FB68D7
:1034C000002B40F08F80BB68D3F80836002B1BD050
:1034D000BB68D3F8083600211846FEF74DFCF860AB
:1034E000FB68002B72D10A2000F0D3F8BB68D3F838
:1034F000083601211846FEF765FCF860FB68002BD2
:1035000066D15A2000F0C5F8BB681A1D3B68043329
:1035100019461046FEF79EFEF860FB68002B59D155
:10352000072135481BF05EFBBB6803F108003B68D0
:1035300030330622194624F0F1F9BB6803F1080084
:103540003B6830330622194623F06CFB3B681A783F
:10355000BB681A703B6893F83620BB6883F80C266A
:10356000BB68D3F80836002B09D1B868FFF7B3FE63
:10357000F860FB68002B1CD15A2000F08AF8B8686C
:10358000FFF746FFF860FB68002B14D1B868FFF71F
:10359000DFFEF860FB68002B0FD1B868FFF770FE04
:1035A000F860FB68002B0AD17B68BA681A600023B8
:1035B0001DE000BF04E000BF02E000BF00E000BF6C
:1035C000BB685B681846FEF7DBFE04E000BF02E064
:1035D00000BF00E000BFBB68D3F808361846FEF70E
:1035E00087FB00E000BFB86823F032F8FB6818469C
:1035F0001037BD4680BD00BF8C0C002080B584B064
:1036000000AF78607B68002B02D16FF015031FE0DC
:103610007B685B681846FEF7B3FEF860FB68002B1A
:1036200001D0FB6814E07B68D3F80836002B0BD080
:103630007B68D3F808361846FEF75AFBF860FB683B
:10364000002B01D0FB6803E0786823F001F8002329
:1036500018461037BD4680BDB0B500AF1EF0B8FFAC
:10366000054BD3E90023541C43F10005024BC3E989
:10367000004500BFB0BD00BF900D002080B582B0F6
:1036800000AF786078681FF0CDF800BF0837BD46FE
:1036900080BD80B582B000AF78607B684FF47A72ED
:1036A00002FB03F318461FF0BDF800BF0837BD4604
:1036B00080BD00002DE9B04384B000AF78601D4BA1
:1036C000D3E900014FF47A724FF0000322F0C4FDF9
:1036D00002460B461346BB60164BD3E90023B9687C
:1036E0004FF47A7000FB01F100200C460546B2EB66
:1036F000040863EB050942464FF47A7303FB02F2B8
:103700000D4B99680D4B1B680D48A0FB03039B0CE8
:10371000B1FBF3F31344FB607B681A4607F108031F
:1037200093E8030082E8030078681037BD46BDE8DF
:10373000B08300BF900D002010E000E0B80C022024
:1037400083DE1B4380B485B000AFF860B9601346D8
:10375000FB71FB79002B06D0FB681A68BB681A4323
:10376000FB681A6006E0FB681A68BB68DB431A4016
:10377000FB681A6000BF1437BD465DF8047B7047D4
:1037800080B588B000AF786039603B68002B07D007
:103790003B681B69002B03D03B685B681F2B02DD75
:1037A0006FF0150394E0142101201BF002FA7861F8
:1037B0007B69002B02D16FF00B0389E00C21012003
:1037C0001BF0F7F938613B69002B03D16FF00B0355
:1037D000FB6179E03B681B69FB603B681B7A022B4D
:1037E0000CD0022B0DDC002B02D0012B03D008E003
:1037F0000023BB6109E00123BB6106E00223BB613A
:1038000003E06FF01503FB615BE03B681B68032B73
:1038100003DD6FF01503FB6153E03B681B68002B71
:1038200013D03B681B68012B0DD03B681B68022B33
:1038300007D03B681B68032B01D1274B06E0002310
:1038400004E0264B02E0264B00E0264B3A69136069
:103850003B685B68012202FA03F31A463B695A602F
:10386000BB69DAB23B695A723B6900221A72FB6883
:103870001A783B699A723B681A687B691A603B68E0
:103880005A687B695A603B681A7A7B691A727B694D
:103890003A691A613B681B6818461CF095FB7B6906
:1038A0001B6918461CF0BCFBF861FB69002B03D0B8
:1038B0006FF01503FB6104E07B687A691A600023EE
:1038C00006E038691BF083F978691BF080F9FB6921
:1038D00018462037BD4680BD00B0004000A0004023
:1038E000009000400080004080B582B000AF78605A
:1038F00039603B68002B04D17B6800221A600023EA
:1039000004E039687868FFF73BFF0346184608373C
:10391000BD4680BD80B582B000AF78607B68002B6B
:1039200002D16FF0150308E07B681B6918461BF095
:103930004EF978681BF04BF9002318460837BD464E
:1039400080BD80B584B000AF78607B68002B03D069
:103950007B685B681F2B02DD6FF0150309E07B6855
:103960001B69FB60FB6800221A72F8681CF058FBA8
:10397000002318461037BD4680BD80B584B000AF27
:1039800078600B46FB707B68002B06D07B685B6819
:103990001F2B02DCFB78012B02D96FF0150330E0FE
:1039A0007B681B69FB60FB681B68BB60FB680122CE
:1039B0001A72F8681CF034FB7B685B68012202FA1B
:1039C00003F301221946B868FFF7BCFEFB78002B11
:1039D00002D0012B0AD013E07B685B68012202FA57
:1039E00003F31946B8681CF004FC09E07B685B68C7
:1039F000012202FA03F31946B8681CF0EDFB00BF80
:103A0000002318461037BD4680BD80B485B000AF96
:103A1000786039607B68002B03D07B685B681F2B64
:103A200002DD6FF015030EE07B681B69FB60FB682D
:103A30001B7A012B03D13B6801221A7002E03B681C
:103A400000221A70002318461437BD465DF8047B27
:103A5000704780B584B000AF78600B46FB707B6820
:103A6000002B03D07B685B681F2B02DD6FF0150312
:103A70003CE07B681B69FB60FB681B68BB607B6884
:103A80005B68012202FA03F301221946B868FFF7C6
:103A900059FEFB78022B1AD0022B23DC002B02D01C
:103AA000012B0AD01EE07B685B68012202FA03F357
:103AB0001946B8681CF09DFB17E07B685B68012223
:103AC00002FA03F31946B8681CF086FB0DE07B6828
:103AD0005B68012202FA03F300221946B868FFF777
:103AE00031FE02E06FF0150300E0002318461037A6
:103AF000BD4680BD80B584B000AF786039607B681A
:103B0000002B03D07B685B681F2B02DD6FF0150371
:103B100037E07B681B69FB60FB681B68BB607B68E8
:103B20005B68012202FA03F301221946B868FFF725
:103B300009FEFB681B7A002B11D17B685B680122B0
:103B400002FA03F31946B8681CF038FB02467B689A
:103B50005B6822FA03F3DAB23B681A7010E07B6804
:103B60005B68012202FA03F31946B8681CF04EFBA9
:103B700002467B685B6822FA03F3DAB23B681A708C
:103B8000002318461037BD4680BD80B500AF002029
:103B90001CF063FB00BF80BD80B500AF01201CF0AE
:103BA0005CFB00BF80BD80B500AF02201CF055FB60
:103BB00000BF80BD80B483B000AF0346FB71FB79CA
:103BC00003F01F03012202FA03F1064A97F90730B6
:103BD0005B09203342F8231000BF0C37BD465DF867
:103BE000047B704700E100E080B500AF02481CF0A4
:103BF0001EFE00BF80BD00BF00D0014080B500AFF9
:103C000002481CF014FE00BF80BD00BF00E0014070
:103C100080B586B000AF78600B46FB707B68002BE8
:103C200003D07B68012B07D00DE00E4A07F10C038F
:103C300007CA83E8070009E00B4A07F10C0307CA2B
:103C400083E8070002E06FF0150307E0FB78BB751F
:103C500007F10C0318461CF0E3F900231846183747
:103C6000BD4680BD4C5E0310585E031080B588B021
:103C700000AF786039607B68002B06D03B68002B72
:103C800003D03B681B69002B02D16FF01503C0E025
:103C90003B681B68012B02D96FF01503B9E01821AE
:103CA00001201AF086FF02467B681A607B681B6859
:103CB000002B02D16FF00B03ABE00C2101201AF0B6
:103CC00078FFB861BB69002B03D16FF00B03FB6178
:103CD00099E03B681B697B613B681B68002B07D040
:103CE0003B681B68012B01D14C4B02E0002300E034
:103CF0004B4B3B61BB693A691A607B681B683A6849
:103D000012685A603B685B68464A934204D87B68F5
:103D10001B68444A9A6021E03B685B68424A9342D0
:103D200004D87B681B68404A9A6017E03B685B6870
:103D30003E4A934204D87B681B683C4A9A600DE077
:103D40003B685B683A4A934204D87B681B68384AF0
:103D50009A6003E06FF01503FB6151E07B681B681C
:103D60003A68127A1A737B681B68BA695A613B68B1
:103D70001B68304A52F82330002B10D1BB691B68F6
:103D800018461CF069FC0022012138691CF0F0FB88
:103D90000346002B03D04FF0FF33FB6130E07B681C
:103DA0001B685A687B691B7819461046FFF730FF7D
:103DB000F861FB69002B01D0FB692AE038691CF02F
:103DC00097FCF8607B681B689B68FA68934228BF81
:103DD0001346FB60F96838691CF072FCF861FB69F6
:103DE000002B02DA6FF0150313E03B681B68114AE1
:103DF00052F8232001320F4941F82320002308E024
:103E0000B8691AF0E4FE7B681B6818461AF0DFFEFA
:103E1000FB6918462037BD4680BD00BF00E0014069
:103E200000D00140A0860100801A060040420F0029
:103E300040E13300980D002080B584B000AF786079
:103E40007B685B69FB607B68002B02D16FF0150318
:103E500031E07B685B681A4A52F82320013A18491E
:103E600041F823207B685B68154A52F82330002B09
:103E70001AD1FB681B6818461CF0EEFBB860BB68E3
:103E8000002B01D0BB6816E07B685B68002B07D075
:103E90007B685B68012B01D1242302E0002300E052
:103EA0000D231846FFF786FEF8681AF090FE786832
:103EB0001AF08DFE002318461037BD4680BD00BFA6
:103EC000980D002080B590B000AFF860B960114641
:103ED0001A460B46FB711346BB71FB68002B03D0DF
:103EE000FB685B69002B02D16FF0150352E0FB68A1
:103EF0005B68002B07D0FB685B68012B01D1274B67
:103F000002E0002300E0264BFB63FB685B69BB63B8
:103F1000BB79002B29D1BB6BFA791A72BB6B5B683A
:103F2000002B0BD0BB6B5B68FA791146184623F067
:103F300075F87863BB6B7A6B5A600DE0FB791846B5
:103F40001AF02BFE0246BB6B5A60BB6B5B68002B02
:103F500002D16FF00B031DE0BB6B5B68FA79B968A7
:103F6000184622F05FFE002314E0FB6B7B61FB68C8
:103F70001B7BBB61BB68FB61FB793B620023BB62BF
:103F8000BB687B620023FB6207F1140318461CF038
:103F900026FC034618464037BD4680BD00E0014080
:103FA00000D0014080B590B000AFF860B960114614
:103FB0001A460B46FB711346BB71FB68002B03D0FE
:103FC000FB685B69002B02D16FF0150346E0FB68CC
:103FD0005B69FB63FB685B68002B07D0FB685B6871
:103FE000012B01D11F4B02E0002300E01E4BBB63FD
:103FF000BB6B7B61FB681B7BBB6100233B620023C7
:10400000FB61BB687B62FB79BB62BB79002B0CBF99
:1040100001230023DBB2FB62FB6B1B7A002B07D072
:104020000023FB62FB6B1B7A3B62FB6B5B68FB61F3
:1040300007F1140318461CF0D2FB7863FB6B1B7A64
:10404000002B0AD0FB6B5B6818461AF0C0FDFB6BB7
:1040500000221A72FB6B00225A607B6B18464037B5
:10406000BD4680BD00E0014000D0014080B483B077
:1040700000AF03463960FB7197F90730002B0BDA6C
:104080003B68DAB20C49FB7903F00F03043B5201A1
:10409000D2B20B441A7609E03B68DAB2074997F9C5
:1040A00007305201D2B20B4483F8002300BF0C3713
:1040B000BD465DF8047B704700ED00E000E100E0E4
:1040C00080B582B000AF78607B68013BB3F1807F40
:1040D00001D301230FE00A4A7B68013B53600721AB
:1040E0004FF0FF30FFF7C2FF054B00229A60044BF0
:1040F00007221A60002318460837BD4680BD00BF5E
:1041000010E000E080B500AF074B1B68074AA2FB38
:1041100003239B091846FFF7D3FF01201EF082FB03
:104120000346184680BD00BFB80C0220D34D621074
:1041300080B500AFFFF7E6FF0346184680BD0000DC
:1041400080B483B000AF0346FB71FB7903F01F031B
:10415000012202FA03F1064A97F907305B0942F897
:10416000231000BF0C37BD465DF8047B704700BFCD
:1041700000E100E080B483B000AF0346FB71FB793F
:1041800003F01F03012202FA03F1064A97F90730F0
:104190005B09203342F8231000BF0C37BD465DF8A1
:1041A000047B704700E100E080B483B000AF0346B9
:1041B0003960FB7197F90730002B0BDA3B68DAB2F4
:1041C0000C49FB7903F00F03043B5201D2B20B44BC
:1041D0001A7609E03B68DAB2074997F907305201CD
:1041E000D2B20B4483F8002300BF0C37BD465DF804
:1041F000047B704700ED00E000E100E080B483B094
:1042000000AF786039607B681A683B681B68D31A16
:1042100018460C37BD465DF8047B704780B485B006
:1042200000AF78600023FB601CE0FB68002B10D01F
:10423000FB68012B0BD0FB68022B06D0FB68032B1D
:1042400001D13A2306E0002304E01A2302E01923F7
:1042500000E018237A68934201D1012306E0FB684D
:104260000133FB60FB68032BDFD9002318461437AA
:10427000BD465DF8047B704780B58AB000AF7860BA
:1042800007F1100300221A605A609A60DA607B68B6
:10429000404A93425BD07B683E4A934203D07B689E
:1042A0003D4A934251D07B683A4A934207D07B689B
:1042B000394A934203D07B68384A934243D07B68A3
:1042C000344A93420BD07B68334A934207D07B68D1
:1042D000324A934203D07B68314A934231D07B68A3
:1042E0002C4A93420FD07B682B4A93420BD07B68B9
:1042F0002A4A934207D07B68294A934203D07B68BD
:10430000284A93421BD07B68224A934215D07B688F
:10431000214A934211D07B68204A93420DD07B689A
:104320001F4A934209D07B681E4A934205D07B689E
:104330001D4A934201D10A230AE0002308E0092321
:1043400006E0082304E0072302E0062300E005233B
:104350003B61164B7B627B6A5B6807F1100207F1D9
:104360000C0118461AF0BAFF38623B6A002B0DD1D7
:10437000FB689B68002B05D0FB689B68FA68D268D5
:104380001046984778681EF063FE00E000BF2837AB
:10439000BD4680BD000001400010014000200140EA
:1043A000003001400040014000500140400000202A
:1043B00080B584B000AF78607B68184A93420ED015
:1043C0007B68174A934208D07B68164A934201D112
:1043D000022305E04FF0FF3302E0012300E0002359
:1043E0005B01114A1344FB6078681FF033FBFB68E4
:1043F0001B68002B0ED0FB689B69002B03D1FB6868
:104400001B69002B03D1FB68DB68002B02D0F86826
:104410001FF0EAFA00BF1037BD4680BD00200440FF
:104420000030044000400440B00D002080B500AFD3
:104430000248FFF7BDFF00BF80BD00BF0020044061
:1044400080B500AF0248FFF7B3FF00BF80BD00BFDB
:104450000030044080B500AF0248FFF7A9FF00BF5D
:1044600080BD00BF0040044080B500AF0248FFF7A8
:1044700003FF00BF80BD00BF0000014080B500AF5A
:104480000248FFF7F9FE00BF80BD00BF00100140E9
:1044900080B500AF0248FFF7EFFE00BF80BD00BF50
:1044A0000020014080B584B000AF1DF035FA03460E
:1044B000FB60124BBB60FB6803F04003002B19D07C
:1044C00040201DF033FABB685B683A461146184637
:1044D0001AF0B6FE78607B68002B0ADB3B689B68AD
:1044E000002B07D03B689B683A68D2681046984713
:1044F00000E000BF1037BD4680BD00BF3000002087
:1045000080B58AB000AF786039607B681B683B4A31
:10451000934210D07B681B68394A934209D07B686C
:104520001B68384A934201D1022305E04FF0FF3364
:1045300002E0012300E000233B6207F108030022B0
:104540001A605A609A60DA603B6A002B0BD03B6AB3
:10455000012B06D03B6A022B01D1222304E0002369
:1045600002E00F2300E00E23BB603B68002B02D06B
:10457000254B7B6218E07B68DA687B685B699A424E
:1045800006D17B68DB68002B02D0204B7B620BE0FE
:104590007B681A697B689B699A4229D17B681B6991
:1045A000002B25D01A4B7B627B6A5B6807F10802FF
:1045B00007F1180118461AF091FEF861FB69002B0B
:1045C00018D1144A3B6A5B01134400221A60BB698C
:1045D0009B68002B0FD0104B01221A70BB699B689F
:1045E000BA69D268104698470B4B00221A7002E055
:1045F00000BF00E000BF2837BD4680BD002004405A
:104600000030044000400440280000201800002032
:1046100020000020B00D0020100E002080B584B0D6
:1046200000AF786039603B68002B02D16FF0150352
:1046300016E00C2101201AF0BCFAF860FB68002B90
:1046400002D16FF00B030BE03B681A68FB681A603D
:104650003B689A68FB689A607B68FA681A60002376
:1046600018461037BD4680BD80B584B000AF786075
:104670007B68002B02D16FF0150326E00023FB605E
:104680001CE0BB6818461AF0A2FA124AFB68DB006D
:1046900013445B6807F10802114618461AF057FEEA
:1046A0000346002BEDD00B4AFB68DB0013445B682C
:1046B00018461AF0BBFCFB680133FB60FB68062B55
:1046C000E3D978681AF083FA002318461037BD46FC
:1046D00080BD00BF1000002080B58AB000AFF86038
:1046E000B9607A6007F1100300221A605A609A607C
:1046F000DA60BB683B61B868FFF790FD0346002BAA
:1047000002D06FF0570340E1FB68002B02D07B68BA
:10471000002B02D16FF0150337E17B685B7A032B26
:1047200000F0C980032B00F32181012B02D0022B62
:1047300066D01BE17B681B7A964ADB0013445B68FA
:10474000002B10D17B681B7ADB00924A13440433A0
:10475000914A032118461AF025FC78627B6A002BE7
:1047600001D07B6A11E17B681B7A8A4ADB00134423
:104770005B6807F1100207F1200118461AF0AEFD40
:1047800078627B6A002B2BD0102101201AF011FADD
:1047900003463B623B6A002B02D16FF00B03F4E04F
:1047A0003B6ABA681A603B6A7A68D2685A603B6AA8
:1047B0007A6812689A603B6A7A685268DA607B6845
:1047C0001B7A744ADB0013445B683A6A1146184648
:1047D0001AF08CFC78627B6A002B00F0CA80CFE074
:1047E0003B6ABA681A603B6A7A68D2685A603B6A68
:1047F0007A6812689A603B6A7A685268DA60B8E050
:10480000644B5B6A002B0AD1634A032163481AF0A8
:10481000C9FB78627B6A002B01D07B6AB5E05D4BF7
:104820005B6A07F12002114618461AF009FD78620A
:104830007B6A002B26D0102101201AF0BAF903461A
:104840003B623B6A002B02D16FF00B039DE03B6A99
:10485000BA681A603B6A7A68D2685A603B6A7A68BA
:1048600012689A603B6A7A685268DA60494B5B6A00
:104870003A6A114618461AF004FC78627B6A002BEB
:104880000FD07DE03B6ABA681A603B6A7A68D268EA
:104890005A603B6A7A6812689A603B6A7A68526822
:1048A000DA6002201DF018F878627B6A002B62D073
:1048B0006FF00F0369E0374B5B6B002B0AD1364A70
:1048C000032137481AF06EFB78627B6A002B01D017
:1048D0007B6A5AE07B681B7A2E4ADB0013445B68D4
:1048E00007F1100207F1200118461AF0F7FC786270
:1048F0007B6A002B2AD0102101201AF05AF90346B6
:104900003B623B6A002B02D16FF00B033DE03B6A38
:10491000BA681A603B6A7A68D2685A603B6A7A68F9
:1049200012689A603B6A7A685268DA607B681B7A20
:10493000184ADB0013445B683A6A114618461AF0BD
:10494000D5FB78627B6A002B17D019E03B6ABA6806
:104950001A603B6A7A68D2685A603B6A7A68126861
:104960009A603B6A7A685268DA6006E06FF0150375
:104970000BE000BF02E000BF00E000BF002304E046
:104980003B6A18461AF023F97B6A18462837BD4659
:1049900080BD00BF10000020FD4100103400002049
:1049A0004400002080B58AB000AFF860B9607A603A
:1049B00000233B6207F1100300221A605A609A60DC
:1049C000DA60BB683B61B868FFF728FC0346002B40
:1049D00002D06FF0570332E0FB68002B02D07B68F7
:1049E000002B02D16FF0150329E07B685B7A012B65
:1049F00002D0022B04D009E07B68DB687B6105E014
:104A0000114B7B6102201CF077FF00BF7B681B7A93
:104A10000E4ADB0013445B6807F1100207F1200126
:104A200018461AF016FD78627B6A002B02D06FF0F0
:104A3000120304E03B6A18461AF0C9F87B6A18466C
:104A40002837BD4680BD00BF006000401000002038
:104A500080B485B000AFF860B9601346FB716FF0A9
:104A6000570318461437BD465DF8047B704780B481
:104A700083B000AF786062B600BF002318460C37E1
:104A8000BD465DF8047B704780B483B000AF7860AA
:104A900072B600BF002318460C37BD465DF8047B94
:104AA000704780B582B000AF786039603B68502BAA
:104AB00002D96FF0150305E03B685BB21846FFF7BB
:104AC0003FFB002318460837BD4680BD80B582B045
:104AD00000AF786039603B68502B02D96FF0150346
:104AE00005E03B685BB21846FFF744FB002318461D
:104AF0000837BD4680BD80B584B000AFF860B960AE
:104B00007A60BB68502B02D96FF0150306E0BB68D2
:104B10005BB279681846FFF747FB00231846103749
:104B2000BD4680BD80B58AB000AF78607B685B69A8
:104B30007B627B685B68032B00F2C28001A252F8A3
:104B400023F000BF554B00107F4B0010E94B0010C5
:104B5000554C0010684A07F1180307CA83E807009C
:104B60007B681B7B002B07D1644A07F10C0307CA43
:104B700083E8070000BFA6E06FF01503B7E0604AC6
:104B800007F1180307CA83E807007B681B7B032B28
:104B900026D801A252F823F0A94B0010B74B001001
:104BA000C54B0010D34B0010564A07F10C0307CA3F
:104BB00083E8070017E0544A07F10C0307CA83E8AB
:104BC000070010E0514A07F10C0307CA83E8070009
:104BD00009E04F4A07F10C0307CA83E8070002E027
:104BE0006FF0150383E06EE04A4A07F1180307CA25
:104BF00083E807007B681B7B032B27D801A252F8B0
:104C000023F000BF154C0010234C0010314C001055
:104C10003F4C0010404A07F10C0307CA83E8070025
:104C200017E03E4A07F10C0307CA83E8070010E0CB
:104C30003B4A07F10C0307CA83E8070009E0394A39
:104C400007F10C0307CA83E8070002E06FF01503C1
:104C50004DE038E0344A07F1180307CA83E807003B
:104C60007B681B7B032B27D801A252F823F000BFDF
:104C7000814C00108F4C00109D4C0010AB4C00106C
:104C8000254A07F10C0307CA83E8070017E0234A07
:104C900007F10C0307CA83E8070010E0204A07F178
:104CA0000C0307CA83E8070009E0204A07F10C0358
:104CB00007CA83E8070002E06FF0150317E002E07F
:104CC0006FF0150313E07B6A1B685B7987F822306D
:104CD0007B6A1B685B79BB7507F1180318461BF0EC
:104CE0009FF907F10C0318461BF09AF900231846A8
:104CF0002837BD4680BD00BF705E0310645E0310A0
:104D00007C5E0310885E0310945E0310A05E0310A7
:104D1000AC5E0310B85E0310C45E0310D05E0310D7
:104D2000DC5E0310E85E0310F45E0310005F031006
:104D300080B588B000AF786039607B685B69BB6123
:104D40003B685A69BB695B689A4206D13B689A69BD
:104D5000BB699B689A4200F094807B685B68002B7B
:104D600013D07B685B68012B0DD07B685B68022BDE
:104D700007D07B685B68032B01D1444B06E000231E
:104D800004E0434B02E0434B00E0434B7B617B6913
:104D90001B693B6178691CF037FF0346FB60FB68C9
:104DA0005A083E4B1344FA68B3FBF2F3BB603B680E
:104DB0005A69BB695B689A4227D03B685B69002BE4
:104DC00002D10123FB6109E03B685B694FF47A7211
:104DD00003FB02F2BB68B2FBF3F3FB61FB69FF2B41
:104DE00003D92F4822F0F4F847E07B691B6923F0D0
:104DF000FF027B691A61F969FF201AF0C1FC0246C3
:104E00007B691B691A437B691A613B689A69BB69B4
:104E10009B689A4228D03B685B69002B02D1012332
:104E2000FB6109E03B689B694FF47A7203FB02F275
:104E3000BB68B2FBF3F3FB61FB69FF2B03D9194895
:104E400022F0C6F819E07B691B6923F47F427B6975
:104E50001A61F9694FF47F401AF092FC02467B69AF
:104E60001B691A437B691A613B685A69BB695A60BE
:104E70003B689A69BB699A6004E07B693A691A6188
:104E800000E000BF2037BD4680BD00BF00E00B4002
:104E900000800440007004400060044000CA9A3B57
:104EA000E82703101428031080B588B002AF78609B
:104EB0007B685B69FB60FB681B68BB607B685B6849
:104EC000002B13D07B685B68012B0DD07B685B687F
:104ED000022B07D07B685B68032B01D16C4806E08E
:104EE000002004E06B4802E06B4800E06B48BB68C0
:104EF0001B681946BB681B791A467B689B6801933F
:104F000000920B46002201211CF0A0FD38613B6994
:104F1000002B03D06FF015033B6197E07868FFF733
:104F200001FE38613B69002B40F08F807B685B7B22
:104F3000032B15D801A252F823F000BF594F0010DF
:104F40004D4F0010534F0010594F00100123FB75B7
:104F500009E00223FB7506E07B685B7BFB7502E0E2
:104F60006FF015038FE07B685B68002B13D07B68C4
:104F70005B68012B0DD07B685B68022B07D07B68D8
:104F80005B68032B01D1424B06E0002304E0414B58
:104F900002E0414B00E0414BFA7D114618461CF0FF
:104FA000ABFE38613B69002B03D06FF015033B610A
:104FB0004CE07B685B68002B13D07B685B68012B3F
:104FC0000DD07B685B68022B07D07B685B68032B86
:104FD00001D12F4B06E0002304E02E4B02E02E4BC4
:104FE00000E02E4B012118461CF076FE38613B692B
:104FF000002B03D06FF015033B6127E07B685B68F3
:10500000002B13D07B685B68012B0DD07B685B683D
:10501000022B07D07B685B68032B01D11C4B06E099
:10502000002304E01B4B02E01B4B00E01B4B08215C
:1050300018461CF037FE38613B69002B03D06FF037
:1050400015033B6102E000231DE000BF7B685B6845
:10505000002B13D07B685B68012B0DD07B685B68ED
:10506000022B07D07B685B68032B01D1084B06E05D
:10507000002304E0074B02E0074B00E0074B184613
:105080001CF074FD3B6918461837BD4680BD00BF53
:1050900000E00B40008004400070044000600440C9
:1050A00080B586B000AF786039603B68002B03D0D4
:1050B0003B681B69002B02D16FF015036BE01C21CC
:1050C000012019F076FD38613B69002B02D16FF0A9
:1050D0000B0360E00C21012019F06BFDF860FB6808
:1050E000002B03D16FF00B037B614DE03B681B6924
:1050F000BB603B681A683B695A603B685A683B6909
:105100009A603B681A7A3B691A733B685A7A3B6922
:105110005A733B689A7A3B699A73FB68BA681A605B
:105120003B69FA685A613B695B68032B03D96FF0EE
:1051300015037B6128E03869FFF7B6FE78617B696B
:10514000002B04D17B683A691A60002323E000BF7A
:105150003B695B68002B13D03B695B68012B0DD06A
:105160003B695B68022B07D03B695B68032B01D16D
:105170000B4B06E0002304E00A4B02E00A4B00E080
:105180000A4B18461CF0F2FCF86819F020FD38694B
:1051900019F01DFD7B6918461837BD4680BD00BF5C
:1051A00000E00B40008004400070044000600440B8
:1051B00080B582B000AF78607B68002B02D16FF0C1
:1051C000150324E07B685B68002B13D07B685B6869
:1051D000012B0DD07B685B68022B07D07B685B6876
:1051E000032B01D10C4B06E0002304E00B4B02E043
:1051F0000B4B00E00B4B18461CF0B8FC7B685B695E
:10520000184619F0E4FC786819F0E1FC0023184610
:105210000837BD4680BD00BF00E00B400080044061
:10522000007004400060044080B58CB000AFF860AE
:10523000B9607A60FB685B68002B13D0FB685B6821
:10524000012B0DD0FB685B68022B07D0FB685B6805
:10525000032B01D1784B06E0002304E0774B02E0FA
:10526000774B00E0774BFB610023FB620023BB62BE
:10527000012387F82730012387F8263000233B627B
:10528000FB68002B02D0BB68002B02D16FF0150326
:10529000A0E1FB681B7BBB61FB685B686A4A52F854
:1052A0002330BA699A420ED0F868FFF7FDFD7861A5
:1052B0007B69002B01D07B698CE1FB685B686249EC
:1052C000BA6941F82320FB695B6823F47022FB690B
:1052D0005A60FB681B7B1A460123934019464FF422
:1052E00070201AF04DFA0246FB695B681A43FB69AD
:1052F0005A6000233B6267E1FB69DB6943F080127F
:10530000FB69DA61FB691B6A43F40062FB691A629C
:10531000FB6900229A603A6A1346DB009B1A9B00E5
:105320001A46BB6813441B7B002B06D0FB695B68E5
:1053300023F48072FB695A6005E0FB695B6843F403
:105340008072FB695A603A6A1346DB009B1A9B0025
:105350001A46BB6813441946F868FFF7E9FC3A6A35
:105360001346DB009B1A9B001A46BB6813441B685C
:10537000002B3AD0BB689A68FB699A60002387F8D3
:105380002630FB69DB6943F04002FB69DA613A6A67
:105390001346DB009B1A9B001A46BB6813441A682D
:1053A000FB6AD1183A6A1346DB009B1A9B001A4627
:1053B000BB6813449A68FB6AD31A1A46F8691CF052
:1053C000C7FC0246FB6A1344FB623A6A1346DB00E1
:1053D0009B1A9B001A46BB6813449B68FA6A9A4260
:1053E0000CBF0123002387F826303A6A1346DB00FE
:1053F0009B1A9B001A46BB6813445B68002B14D0B1
:10540000BB689B68194611481AF0BAF90246FB6955
:105410009B681A43FB699A60FB69DB6943F480026D
:10542000FB69DA61002387F82730FB695B6843F08A
:105430002002FB695A6095E000E00B4000800440C8
:105440000070044000600440A00D00200000FFFF39
:105450003A6A1346DB009B1A9B001A46BB6813444A
:105460001B68002B39D03A6A1346DB009B1A9B005D
:105470001A46BB6813449B68FA6A9A422DD23A6A6C
:105480001346DB009B1A9B001A46BB6813441A683C
:10549000FB6AD1183A6A1346DB009B1A9B001A4636
:1054A000BB6813449A68FB6AD31A1A46F8691CF061
:1054B0004FFC0246FB6A1344FB623A6A1346DB0068
:1054C0009B1A9B001A46BB6813449B68FA6A9A426F
:1054D0000CBF0123002387F826303A6A1346DB000D
:1054E0009B1A9B001A46BB6813445B68002B39D09B
:1054F0003A6A1346DB009B1A9B001A46BB681344AA
:105500009B68BA6A9A422DD23A6A1346DB009B1A0C
:105510009B001A46BB6813445A68BB6AD1183A6AA2
:105520001346DB009B1A9B001A46BB6813449A681B
:10553000BB6AD31A1A46F8691CF0EEFB0246BB6A36
:105540001344BB623A6A1346DB009B1A9B001A465F
:10555000BB6813449B68BA6A9A420CBF01230023BC
:1055600087F8273097F8273083F00103DBB2002B50
:105570007FF46EAF97F8263083F00103DBB2002B87
:105580007FF466AF00BFFB691B6A03F40063002B66
:10559000F9D0FB695B6823F02002FB695A60FB6964
:1055A000DB6923F04012FB69DA613A6A1346DB00DB
:1055B0009B1A9B001A46BB6813441B691846FEF7EA
:1055C0005DF83B6A01333B623A6A7B689A42FFF4BA
:1055D00093AE002318463037BD4680BD80B58CB0F1
:1055E00000AFF860B9601346FB8007F11403002296
:1055F0001A605A609A60DA601A615A619A61BB68EF
:105600007B61BB68BB61FB88FB61012387F82030AD
:105610000123BB6207F1140301221946F868FFF762
:1056200003FE034618463037BD4680BD80B483B0C4
:1056300000AF786039607B68B3F5805F02D96FF0A6
:10564000150360E07B68012B03D83B6800221A80B9
:1056500058E07B68032B03D83B6808221A8051E08E
:105660007B68072B03D83B6810221A804AE07B68CE
:105670000F2B03D83B6818221A8043E07B681F2B4E
:1056800003D83B6820221A803CE07B683F2B03D87C
:105690003B6828221A8035E07B687F2B03D83B6863
:1056A00030221A802EE07B68FF2B03D83B6838221B
:1056B0001A8027E07B68B3F5007F04D23B684FF483
:1056C00080721A801EE07B68B3F5806F04D23B685D
:1056D0004FF488721A8015E07B68B3F5006F04D22E
:1056E0003B684FF48C721A800CE07B68B3F5805FE6
:1056F00004D23B684FF490721A8003E03B684FF489
:1057000094721A80002318460C37BD465DF8047B5E
:105710007047000080B588B000AF786039603B68A2
:10572000002B03D03B681B88052B02D96FF01503B3
:105730007EE01821012019F03CFAB861BB69002B0A
:1057400002D16FF00B0373E00C21012019F031FA44
:1057500078617B69002B03D16FF00B03FB6163E081
:105760003B681A88BB699A803B685A68BB699A6033
:105770003B689A68BB69DA603B681B88002B1FD0C6
:105780003B681B88012B19D03B681B88022B13D068
:105790003B681B88032B0DD03B681B88042B07D06C
:1057A0003B681B88052B01D1234B0AE0002308E04E
:1057B000224B06E0224B04E0224B02E0224B00E0A9
:1057C000224B3B61224B1B685A083B685B68B2FB6B
:1057D000F3F3FB6007F10A031946F868FFF726FFA9
:1057E000F861FB69002B1BD17B6901229A70BB69B0
:1057F000DA687B695A607B6901229A607A897B69E1
:105800001A80BB697A695A6138691DF085FB79692C
:1058100038691DF0E5FA7B68BA691A60002307E071
:1058200000BF786919F0D3F9B86919F0D0F9FB69AC
:1058300018462037BD4680BD005001400040014061
:1058400000300140002001400010014000000140F4
:10585000B80C022080B582B000AF78607B68002B66
:1058600002D16FF0150330E07B689B88002B1FD0BE
:105870007B689B88012B19D07B689B88022B13D0F7
:105880007B689B88032B0DD07B689B88042B07D0FB
:105890007B689B88052B01D10E4B0AE0002308E0B2
:1058A0000D4B06E00D4B04E00D4B02E00D4B00E00C
:1058B0000D4B18461DF030FB7B685B69184619F0EC
:1058C00086F9786819F083F9002318460837BD4631
:1058D00080BD00BF00500140004001400030014049
:1058E00000200140001001400000014080B582B05E
:1058F00000AF78607B68002B02D16FF0150328E0C1
:105900007B689B88002B1FD07B689B88012B19D05C
:105910007B689B88022B13D07B689B88032B0DD060
:105920007B689B88042B07D07B689B88052B01D163
:105930000A4B0AE0002308E0094B06E0094B04E0AB
:10594000094B02E0094B00E0094B18461DF05EFBD5
:10595000002318460837BD4680BD00BF00500140F7
:105960000040014000300140002001400010014093
:105970000000014080B582B000AF78607B68002BEA
:1059800002D16FF0150328E07B689B88002B1FD0A5
:105990007B689B88012B19D07B689B88022B13D0D6
:1059A0007B689B88032B0DD07B689B88042B07D0DA
:1059B0007B689B88052B01D10A4B0AE0002308E095
:1059C000094B06E0094B04E0094B02E0094B00E0FB
:1059D000094B18461DF025FB002318460837BD4625
:1059E00080BD00BF00500140004001400030014038
:1059F00000200140001001400000014080B582B04D
:105A000000AF786039607B68002B02D16FF015031E
:105A10002BE07B689B88002B1FD07B689B88012B29
:105A200019D07B689B88022B13D07B689B88032B43
:105A30000DD07B689B88042B07D07B689B88052B47
:105A400001D10C4B0AE0002308E00B4B06E00B4BA6
:105A500004E00B4B02E00B4B00E00B4B18461DF033
:105A6000EBFA02463B681A60002318460837BD4629
:105A700080BD00BF005001400040014000300140A7
:105A800000200140001001400000014080B582B0BC
:105A900000AF786039607B68002B05D01B4B1B681A
:105AA0005B083A689A4202D36FF0150329E07B68DD
:105AB0009B88002B1FD07B689B88012B19D07B68AB
:105AC0009B88022B13D07B689B88032B0DD07B68AF
:105AD0009B88042B07D07B689B88052B01D10C4B3E
